:020000040800F2
:10000000C8130020790200089D230008651D000820
:10001000A11D0008B9190008712A0008000000009D
:100020000000000000000000000000007D25000826
:10003000BD190008000000002524000891260008D2
:10004000930200089302000893020008930200083C
:10005000930200089302000893020008930200082C
:10006000930200089302000893020008930200081C
:10007000930200089302000893020008930200080C
:1000800093020008930200089302000893020008FC
:1000900093020008930200089302000893020008EC
:1000A00093020008930200089302000893020008DC
:1000B00093020008930200089302000893020008CC
:1000C00093020008930200089302000893020008BC
:1000D000930200080D2700086D270008C9270008B3
:1000E000930200089302000893020008930200089C
:1000F000930200089302000893020008930200088C
:10010000930200089302000893020008930200087B
:10011000930200089302000893020008930200086B
:10012000930200089302000893020008930200085B
:1001300000F002F800F090F80AA090E8000C824469
:100140008344AAF10107DA4501D100F085F8AFF246
:10015000090EBAE80F0013F0010F18BFFB1A43F0A5
:1001600001031847E437000004380000103A24BFA8
:1001700078C878C1FAD8520724BF30C830C144BF0C
:1001800004680C607047000000230024002500264E
:10019000103A28BF78C1FBD8520728BF30C148BFEA
:1001A0000B6070476E2900F0DF82702900F05786DF
:1001B000662903F0E282652903F0DF82672903F0F4
:1001C000DC826129AFF3008003681B0A28BF41F07D
:1001D0008001692900F0F680642900F0F380752918
:1001E00000F0F0806F2900F0E485782900F0238684
:1001F000E92900F07F85E42900F07C85F52900F0ED
:100200007985EF2900F0E185F82900F0228603685E
:10021000DB0928BF41F08001632900F0EE847329D7
:1002200000F0F384E32900F0B986F32900F0BE86DC
:10023000002070471FB500F01DFE040000200021C3
:1002400002F0A2FF401C60600020002102F086FF47
:10025000E0601FBD10B510BD00F042FF1146FFF772
:10026000E9FF02F07BFC00F069FF03B4FFF7F2FF47
:1002700003BC02F01AFC0000094880470948004707
:10028000FEE7FEE7FEE7FEE7FEE7FEE7FEE7FEE746
:10029000FEE7FEE704480549054A064B70470000A3
:1002A0009526000831010008C80D0020C813002061
:1002B000C80F0020C80F0020704700001CB50C4676
:1002C000064B7B4469460090204600F074FC0446CF
:1002D0000020694600F082FC20461CBD1709000082
:1002E0000FB4044910B503AA029800F093FC10BCA7
:1002F0005DF814FB280000200FB41CB5084B06AABB
:100300007B4469460090059800F055FC04460020A7
:10031000694600F063FC20461CBC5DF814FB00003D
:10032000D908000070B5044685690068C10601D58A
:10033000302600E02026C00707D070BDD4E9012197
:1003400030469047206A401C20626D1EF6D570BD75
:1003500070B5044685690078C00707D170BDD4E93F
:10036000012120209047206A401C20626D1EF6D596
:1003700070BD70B50C460546012A05D02878800668
:1003800000D5EA69002302E0012305E05B1C9342EB
:1003900002D2E05C0028F9D1A869E618C01AA86169
:1003A000286A184428622846FFF7BCFF04E0D5E914
:1003B000012114F8010B9047B442F8D32846FFF707
:1003C000C7FF70BD2DE9F04106460024106875296D
:1003D000314616A510D000F05CF9002802DA404240
:1003E00013A507E031688A0701D512A502E0490785
:1003F00004D511A5012401E000F054F900210A22DE
:1004000006F1240709E0B0FBF2FCB0FBF2F302FBBB
:100410001C00303078541846491C0028F3D123467C
:100420002A463046BDE8F04100F045B90000000022
:100430002D0000002B000000200000002DE9F05FDF
:10044000894604464FF0000ADFF874B1FB44C0F857
:1004500020A02046E1688847002874D0252806D0CF
:10046000D4E901219047206A401C2062F1E7002670
:100470005F462046E16888472028054607DB312D86
:1004800005D2781910F8200C08B10643F1E7B0073F
:1004900001D526F00406C4F81CA00027C4F818A053
:1004A0002A2D09D0284602F0F9FA38B304EB870860
:1004B000303DC8F8185019E059F8041B204604EBE9
:1004C00087029161E1688847012F054618D1E069EC
:1004D000002820DA26F020061DE0D8F8180000EBEE
:1004E000800005EB40003038C8F818002046E1686D
:1004F0008847054602F0D2FA0028EED1012F0AD033
:100500002E2D08D12046E16888477F1C0546022F22
:1005100046F02006C4DBA069002803DA404246F01A
:100520000106A061F00701D026F010066C2D0BD05B
:10053000682D09D04C2D39D06A2D35D0742D35D089
:100540007A2D33D016E038E0E1682F462046884700
:10055000B842054609D16C2F26D04FF48060E1687F
:10056000064320468847054604E06C2F1AD04FF416
:10057000807006430DB3A5F14100192802D820353B
:1005800046F400664A462946204626604E46FFF756
:1005900009FE80B101280BD0F61D26F0070000F1FE
:1005A000080956E74020E4E78020D8E70020D6E796
:1005B00006F104094DE7284652E7206ABDE8F09F9E
:1005C000C233000030B505460B462A4613F8014BEE
:1005D00012F8010B08B1A042F8D01CB1002802D0DB
:1005E0006D1CF1E7284630BD10B5431C02E010F841
:1005F000011B71B18107FAD14FF0013202C88C1A88
:100600008C4314EAC211F9D0C01A0A0603D0C01EE6
:1006100010BDC01A10BD0A0401D0801E10BD090211
:10062000FCD0401E10BD10B5203AC0F00B80B1E8E0
:100630001850203AA0E81850B1E81850A0E8185017
:10064000BFF4F5AF5FEA027C24BFB1E81850A0E820
:10065000185044BF18C918C0BDE810405FEA827C3A
:1006600024BF51F8043B40F8043B08BF7047D20751
:1006700028BF31F8023B48BF11F8012B28BF20F8F2
:10068000023B48BF00F8012B704770477047704726
:10069000704709684A0501D540B27047C905FCD5C5
:1006A00000B2704709684A0501D5C0B27047C90554
:1006B000FCD580B270472DE9F0470D469946924629
:1006C000044600F124080168880604D5E06921F099
:1006D0001001216000E00120A84201DD471B00E07D
:1006E0000027A1697A1902EB0900081AA061207895
:1006F000C00602D42046FFF715FE002608E0D4E924
:1007000001211AF806009047206A401C761C2062DE
:100710004E45F4DB2078C0060AD52046FFF702FEDE
:1007200006E0D4E9012130209047206A401C206275
:10073000381EA7F10107F4DC07E0D4E9012118F81D
:1007400005009047206A401C2062281EA5F1010583
:10075000F3DC2046FFF7FCFD2078000602D50220DE
:10076000BDE8F0870120FBE711680268006A5305C5
:1007700001D508700AE0D30501D5088006E013060C
:1007800003D5C217C1E9000200E0086001207047EC
:1007900070472DE9FF4F0C461E464FF0FF378BB0D8
:1007A000D2E90001DDF860800A908A46C1F30A555B
:1007B00005B93D46002108464FF00000BAF1000F90
:1007C00000F4400005DA00EB80004FF4400101EA3C
:1007D00050004FEA9059B9F1010F00DDB9460A986F
:1007E00050EA4A000ED044F61050A5F2FF354543BA
:1007F0002F14B8F1000F1ED07542291E1EDDC9F15D
:1008000000021CE0B8F1010F4FF0000001D03021D0
:1008100003E0F24305E02154401CB042FBDB3046CC
:100820000022002121540B99C1F80880C1E9002061
:100830000FB0BDE8F08FBD1B6D1CDEE74A4600DA45
:10084000694206A800F0B6FB06AB93E8070003ABCD
:1008500083E8070050460A9900F0BAFC8DE80700CB
:10086000A0F500501F3800900398002D09DD42F2DA
:100870001F014A46084403A90390684600F019FF87
:1008800008E0A0F500504A461F3803A903906846C7
:1008900000F023FF8DE807000004000C03D04FF0A8
:1008A000FF30410800E01046B8F1000F03D00022ED
:1008B000009215461EE0751E05D400F0DFFA3032B6
:1008C00062556D1EF9D5B3460122084302D00022BD
:1008D0007F1C04E02078302801D100227F1E002AEE
:1008E000099786D01DE0112D07DA00F0C7FA3032E3
:1008F00062556D1C50EA0102F5D1084302D0009800
:10090000C8B10EE00021681E05E0235C625C635400
:100910002254401E491C8142F7DBAB46A81B401EF7
:100920000990002004F80B000B98099AC0F8088081
:10093000C0E9002B7CE711264FF0000859E72DE9AC
:10094000F04F88460446D21D22F0070191B0D1E94C
:100950000001CDE90A0102F08DF802460B98C00FA4
:1009600001D02D2007E02068810701D52B2002E06F
:10097000202101EAC000032A099001D0072A05DBE3
:1009800003464146204600F0BFFA0BE1207880067E
:1009900001D5E06900E00620B8F1650F814606D078
:1009A000B8F1660F18D0B8F1670F70D131E00020B0
:1009B000B9F1110F009001DB112301E009F10103EE
:1009C0000AAA01A90CA8FFF7E4FEDDE90C700026D5
:1009D00009F10105834647E001204B4600904FF0A6
:1009E00000470AAA01A90CA8FFF7D3FEDDE90DB064
:1009F0000C995D46002610B909F101000D18B9EBFC
:100A0000050003D4C0F1FF3609F10105A5EB09008B
:100A10002BE0B9F1010F01DA4FF001090020B9F123
:100A2000110F0090484601DD112300E003460AAA99
:100A300001A90CA8FFF7ADFEDDE90C704D460026BC
:100A40008346207800070AD4AB4500DA5D4601A84A
:100A5000012D04DD411911F8011C302907D04F4543
:100A600002DA17F1040F04DA012082460FE06D1E4E
:100A7000EEE7002F02DCED1B3E4403E0781CA842A9
:100A800000DD7D1CB81B00F1010A4FF00047207803
:100A9000000703D4AA4501DB4FF0FF3A0021B7F16C
:100AA000004F0DF143088DF8431024D002202B2372
:100AB000002F01DA7F422D230A21021EA0F101003E
:100AC00000DC5FB197FBF1FC97FBF1F201FB1C7CB2
:100AD00017460CF1300C08F801CDEEE7A8F1010043
:100AE00003702188090501D5452100E06521A0F1A9
:100AF000010800F8011C09980FA9A1EB0807FF1DC8
:100B000000B10120411901EBEA70A1693844081ACB
:100B1000401EA0612078C00602D42046FFF702FCE8
:100B2000099828B1D4E901219047206A401C20622D
:100B30002078C00622D52046FFF7F4FB1EE0002EE9
:100B400004DBB34502DD01A8805D00E03020D4E97C
:100B500001219047206A401C2062761CAAF1010006
:100B60005FEA000A0AD100F085F9C0680168405CBC
:100B7000D4E901219047206A401C2062281EA5F17B
:100B80000105DCDC07E0D4E9012118F8010B9047EE
:100B9000206A401C2062381EA7F10107F3DC2046C2
:100BA000FFF7D6FB032011B043E6000001694A1CA1
:100BB00002610878704700B58FB0CDE9013100219E
:100BC000059105497944CDE9031011466846FFF7C0
:100BD00035FC0FB000BD0000E5FFFFFF0A6802F81A
:100BE000010B0A60704710B5436913B1AFF3008081
:100BF00001E0FFF7BEFB012010BD127800F12401D7
:100C00000A7000224A700122EDE711684FF0FF32AE
:100C1000E9E70000074B70B50D467B44FFF7CBFFBB
:100C20000446284600F034FA10B14FF0FF3070BD92
:100C3000204670BD231F00002DE9FF5F15468A4640
:100C40000446DFF8AC80F8440027D8E900103E469F
:100C5000CDE9001010E03AF816106A4602A800F03C
:100C60001BFA411C07D02178890603D5E26939189F
:100C700091420DD80744761C2078800602D5E069A1
:100C8000B84205DDAE42E6DB3AF816000028E2D1B4
:100C9000A069C01BA0612046FFF744FBD8E9001003
:100CA000CDE90010002017E03AF818106A4602A8B3
:100CB00000F0F2F9B0F1FF3F81460BD000250DF1B5
:100CC000080B05E0D4E901211BF8050090476D1CD5
:100CD0004D45F7D308F10100B0428046E4DB206ABD
:100CE000384420622046FFF733FBBDE8FF9F000039
:100CF000DA2B00002DE9F0418046D21D22F00702D8
:100D00000025D2E90002F52915A614D0011E72F1C2
:100D1000000106DA0023D0EB030063EB020211A608
:100D200008E0D8F800108B0701D50FA602E04907AC
:100D300001D50EA601251146002408F1240704E080
:100D400000F09CF830323A55641C50EA0102F7D1A9
:100D50002B46324621464046BDE8F041FFF7ABBC8A
:100D6000000000002D0000002B000000200000000B
:100D700030B4002100F1240408E002F00705D20895
:100D8000303542EA4372DB086554491C52EA0305D8
:100D9000F3D10468002310A2250707D5A40600D4C8
:100DA00021B1C46901230DA2641EC46130BCFFF7E8
:100DB00082BC10B5044621461068FFF773FC02465A
:100DC0002046BDE810400023D2E7D21D22F00701E3
:100DD000D1E90023CCE70000000000003000000053
:100DE000F0B40D460188090502D5214C7C4402E08F
:100DF0001F4C7C440E34002100F1240608E002F070
:100E00000F071209E75D42EA03721B097754491C78
:100E100052EA0307F3D102780023120704D5702D9C
:100E200006D009B1022311342246F0BCFFF743BCBF
:100E300001231034F8E770B504460D4621461068CA
:100E4000FFF730FC024629462046BDE870400023EB
:100E5000C6E7D21D22F00703D3E90023C0E70368E9
:100E6000126843F0200303600823C3610023B7E73F
:100E70003C2A000000487047880D002030B5B0F1D2
:100E80000A024FEA900E71F100034EEA817EB0EB48
:100E90000E0061EB91014FEA101E4EEA017E10EB4D
:100EA0000E0041EB11114FEA102E4EEA016E10EBCD
:100EB0000E0041EB11214FEA104E4EEA014E10EBAD
:100EC0000E0041EB1141401841F100014FEAD00002
:100ED00040EA41704FEAD10110EB80054FEA8104EE
:100EE00044EA907444EB01046D1944EB0404521B72
:100EF000A3414FF0000348BF0A3200D530BD401C6B
:100F000041F1000130BD00002DE9F0411F460446CB
:100F100003260168072A01F4006004DB08B116A566
:100F200005E016A503E008B115A500E015A521F020
:100F300010002060A069C01EA0610FB1401EA0611A
:100F40002046FFF7EFF94FB1D4E901213846904729
:100F5000206A401C2062C01C206206E0206AFAE77A
:100F6000D4E9012115F8010B9047761EF8D22046EE
:100F7000FFF7EEF9BDE8F0814E414E006E616E0064
:100F8000494E4600696E660010B5436913B1AFF370
:100F9000008001E0FFF750FE012010BD128800F133
:100FA000240182840022C2840122EDE711684FF0FF
:100FB000FF32E9E72DE9F047814616468AB033480B
:100FC00078440DC88DE80D0030487844801C03AC8F
:100FD0000DC884E80D0041F69B300844372190FB92
:100FE000F1F290FBF1F5A5F1800501FB12041B3C29
:100FF00002D56442012000E00020DFF890A0804686
:101000000027FA44AAF1BE0A0DE0E00709D03246F3
:10101000684607EB47010AEB810100F05EFB8DE8B3
:10102000070064107F1C002CEFD1184F7F44AC3FA9
:1010300018E0E80714D007EB04100DF1180A90E847
:101040000E008AE80E00C068F04201D1981908909D
:10105000324606A903A800F040FB03AB83E8070073
:101060006D10641C002DE4D132466946B8F1000FC2
:1010700003A802D000F01DFB01E000F02EFBC9E93F
:101080000001C9F808200AB0BDE8F0870C2900006B
:10109000007B00F08000704770B516460C46054690
:1010A00000F044F8036893F80101012806D0FF2CF2
:1010B0000FD8185D68B101202C7070BDD3F80701FE
:1010C0003246214603F2071303442846BDE8704028
:1010D00018474FF0FF3070BD00487047680D002082
:1010E0007546FFF7F9FFAE4605006946534620F006
:1010F0000700854618B020B5FFF7CCF8BDE82040C2
:101100004FF000064FF000074FF000084FF0000BC3
:1011100021F00701AC46ACE8C009ACE8C009ACE876
:10112000C009ACE8C0098D467047000010B5FFF754
:10113000A1FE001D10BD00BF5120000010B50446E7
:10114000AFF300802046BDE81040FFF78EB80000E6
:101150004FF0013C50F8042B51F8043B9A4221D146
:10116000A2EB0C03934313EACC1317D150F8042BD2
:1011700051F8043B9A4215D1A2EB0C03934313EAB6
:10118000CC130BD150F8042B51F8043B9A4209D1EF
:10119000A2EB0C03934313EACC13DBD04FF0000017
:1011A000704700BFD01A01BAB1FA81F101F01801FD
:1011B00022FA01F0CB40C1F12001DBB2C0B2C01A6B
:1011C0002CFA01F3D11A914311EAC311E6D1704709
:1011D0005FEA400C08BF91F0000F4FEA8C234FEA02
:1011E000C12243EA51514FEA1C5018BF00F5F040AC
:1011F0004FEA300018BF41F000415FEA6C5C00F03C
:101200002980BCF1FF3F08BF40F080407047130CBD
:1012100006BF12044FF0100C4FF0000C130E04BF69
:1012200012020CF1080C130F04BF12010CF1040C94
:10123000930F04BF92000CF1020CD30F04BF5200B5
:101240000CF1010C11464FF00002A0F11F00A0EBC1
:101250000C00704711F0004F08BF704731F000419B
:101260003FF4D5AF0B0C06BF09044FF0100C4FF044
:10127000000C0B0E04BF09020CF1080C0B0F04BF8D
:1012800009010CF1040C8B0F04BF89000CF1020C56
:10129000CB0F04BF49000CF1010CCCF12003A0EBF3
:1012A0000C0022FA03F302FA0CF241EA030100F106
:1012B0000100704720F07F4C80EA030023F07F4755
:1012C000ACEB070303F57C5300F0004003F1FF0390
:1012D0002DE980494FEA154B09B44FEA144325EA3A
:1012E0000B4E24EA03480FF2042606EB13274908A5
:1012F0003E785FEA320203FB0667C7F5000707FB8B
:1013000006F64FEA54374FEAD64606F1020607FBC7
:10131000066CCCF1005C4FEA1C472CEA074C07FB3B
:1013200006F40CFB06F504EB15464FEA961634BF9F
:1013300000204FF000404FEAD13706FB07FC4FEA90
:101340001C4C0CFB0BF7D21B03FB0CF761EB0701EA
:101350000CFB0EF7B0EB074072EB17420CFB08F7E3
:1013600034BFA2EB0742B2EB074261EB17414FEAF1
:101370000C444FEA910706FB07FC4FEA1C4C0CFBA0
:101380000BF7B0EBC74072EB573203FB0CF734BFDF
:10139000A2EBC742B2EBC74261EB57310CFB0EF731
:1013A000B0EBC70072EB57720CFB08F734BFA2EB2F
:1013B000C702B2EBC70261EB5771039F4FEA81612D
:1013C00041EA921104EBCC044FEAD1374FEA826232
:1013D00006FB07FC42EA90124FEA80604FEA1C4C81
:1013E0000CFB0BF7D21B03FB0CF761EB07010CFBAB
:1013F0000EF7B0EB074072EB17420CFB08F734BF57
:10140000A2EB0742B2EB074261EB17414FEA8C5562
:101410004FEA910704EB9C2406FB07FC4FEA1C4CA7
:101420000CFB0BF7B0EBC74072EB573203FB0CF72A
:1014300034BFA2EBC742B2EBC74261EB57310CFBA2
:101440000EF7B0EBC70072EB57720CFB08F734BF16
:10145000A2EBC702B2EBC70261EB577115EB4C254B
:101460004FEA816141EA92114FEA82624FEAD13735
:1014700042EA901206FB07FC44F100044FEA806048
:101480004FEA1C4C0CFB0BF7D21B03FB0CF761EB78
:1014900007010CFB0EF7B0EB074072EB17420CFB99
:1014A00008F734BFA2EB0742B2EB074261EB1741EA
:1014B00015EB1C154FEA813141EA92414FEA823225
:1014C00042EA90424FEA80304FEA0C7644F1000441
:1014D00048EA03434EEA0B484FF0000EB2EB080C0B
:1014E00071EB030724BF624639464EEB0E0E4FF0F8
:1014F000000B0018524149414BEB0B0BB2EB080CAF
:1015000071EB03077BF1000B24BF624639464EEBBB
:101510000E0E4FF0000B0018524149414BEB0B0BE4
:10152000B2EB080C71EB03077BF1000B24BF6246A2
:1015300039464EEB0E0E51EA020718BF46F001067F
:1015400016EB0E7655F1000254F1000103D5BDE80B
:101550008901BDE80088BDE88901BDE80048B619E9
:10156000524141EB0101A3F10103704780807F7E6E
:101570007D7C7B7A79787776767574737271717009
:101580006F6E6E6D6C6C6B6A6A69686867666665BB
:101590006464636362616160605F5F5E5E5D5D5C49
:1015A0005C5B5B5A5A5959585857575656555555BA
:1015B0005454535352525251515050504F4F4F4E1A
:1015C0004E4D4D4D4C4C4C4B4B4B4A4A4A49494968
:1015D00048484847474747464646454545444444AA
:1015E000444343434342424242414141002B26D4BB
:1015F000770021D01CB54FEA370703B44FF0100035
:101600004FF010014FF000000FBCBDE810400BF18F
:10161000010BBBF1010F08BF5FEA170722BF12F1F0
:10162000010211F101014FF0004143F1000300F00C
:10163000004043EA00007047F9D35708DAE746EA6A
:10164000064613F1400F4FEA16461FDD13F1200F37
:10165000DFBF16430A46002120335B42C8D0C3F1E6
:10166000200746EA064602FA07F74FEA164646EA18
:101670000706C3F1200722FA03F201FA07F721FA5D
:1016800003F14FF0000342EA0702B1E746EA02061F
:1016900046EA06464FEA164646EA0106BCBF46EA57
:1016A0000646360C4FF000034FF000024FF00001E9
:1016B0009EE72DE9C048934630B491E8380007C84A
:1016C00031EA400C48BF34EA430C03D5FFF7F2FD82
:1016D000FFF78CFFF0BCBDE800882DE9C0489346B9
:1016E00030B491E8380007C810F0804F08BF13F0FD
:1016F000804F03D100F005F8FFF778FFF0BCBDE89C
:10170000008820F07F4780EA030023F07F4C07EB3E
:101710000C03A3F57C5300F00040A3F1FE0392F00C
:10172000000F00F0B38095F0000F00F077802DE9F6
:1017300001494FEA11404FEA144621EA004800FBF4
:1017400006FC24EA064708FB06F607FB08F800FB40
:1017500007F718EB06484CEB164C4FEA124B18EB08
:1017600007484FEA15464CEB174022EA0B4E0BFB9D
:1017700006FC25EA06470EFB06F607FB0EFE0BFBF2
:1017800007F71EEB064E4CEB164C4FF000061EEB17
:10179000074E4CEB174B18EB0B0840F1000018EB11
:1017A0000E0B58EB000840F100008F1A4FF00001BB
:1017B0003CBFC943661B14BFB5EB040C00213CBF02
:1017C000C943F61B4FEA17444EEA8E0E27EA04453A
:1017D0004FEA1C4704FB07622CEA074C05FB07F79E
:1017E0000CFB05F604FB0CFC16EB074642EB17421C
:1017F00016EB0C4642EB1C421BEB060658EB0202B2
:10180000414146EA9E0601D5BDE80189B61952411B
:1018100041EB0101A3F10103BDE801894FEA144541
:101820004FEA114724EA054621EA074C05FB07F475
:1018300006FB07F70CFB06F105FB0CFC11EB07415F
:1018400044EB17444FEA124711EB0C4144EB1C44A4
:1018500022EA074C05FB07F206FB07F70CFB06F62E
:1018600005FB0CFC16EB074642EB174216EB0C4649
:1018700042EB1C456A1854F1000148BF7047B61985
:10188000524141EB0101A3F10103704795F0000FB4
:1018900037D04FEA11424FEA144721EA024624EAC0
:1018A000074C02FB07F106FB07F70CFB06F402FBF3
:1018B0000CFC14EB074441EB17414FEA154714EBBE
:1018C0000C4441EB1C4125EA074C02FB07F506FBE3
:1018D00007F70CFB06F602FB0CFC16EB074645EB84
:1018E000174516EB0C4645EB1C42121951F100014D
:1018F00048BF7047B619524141EB0101A3F1010302
:1019000070474FEA14454FEA114724EA054621EA99
:10191000074C05FB07F106FB07F70CFB06F24FF03F
:10192000000605FB0CFC12EB074241EB174112EBE2
:101930000C4251EB1C4148BF7047921841EB01012A
:10194000A3F101037047000010B50024C82001F086
:10195000D1F81548008800F4004018B312480088F8
:10196000C0F30E001049088000BF0EE02046621C44
:10197000D4B20E4A115C0E4801F076F800BF402147
:101980000B4800F0A9FF0128F9D107490888411E3A
:10199000054A11800028E9D106A001F099FA00203B
:1019A0000149088010BD000030000020B60800206A
:1019B000004800400A00000000BFFEE770472DE924
:1019C000F0410246002500260020002300240027C5
:1019D00091F803C00CF00F0591F803C00CF0100C47
:1019E000BCF1000F03D091F802C04CEA050591F854
:1019F00000C0BCF1000F31D0146800202BE04FF084
:101A0000010C0CFA00F3B1F800C00CEA03069E4288
:101A100020D183004FF00F0C0CFA03F7BC4305FAFA
:101A200003FC4CEA040491F803C0BCF1280F06D172
:101A30004FF0010C0CFA00FCC2F814C00AE091F857
:101A400003C0BCF1480F05D14FF0010C0CFA00FCAB
:101A5000C2F810C0401C0828D1D31460B1F800C0EF
:101A6000BCF1FF0F34DD546800202EE000F1080CBB
:101A70004FF0010808FA0CF3B1F800C00CEA0306B5
:101A80009E4221D183004FF00F0C0CFA03F7BC43A8
:101A900005FA03FC4CEA040491F803C0BCF1280FDA
:101AA00005D100F1080C08FA0CF8C2F8148091F87E
:101AB00003C0BCF1480F07D100F1080C4FF001083A
:101AC00008FA0CF8C2F81080401C0828CED35460E5
:101AD000BDE8F0810161704770B504460D462946A6
:101AE000204600F009FA2946204600F075F92946FB
:101AF000204600F0A5F92946204600F093FA294631
:101B0000204600F09FFB70BDF0B58FB05B49D1F867
:101B1000490001F0DDFC07465949384601F0DEFB7B
:101B20000746044601F04CFB0546544890F84D002A
:101B30002A460B4653A1009002A8FEF7DDFB02A83F
:101B400001F0C6F94D49486C01F0C2FC07464C490A
:101B5000384601F0C3FB0746044601F031FB054659
:101B6000464890F848002A460B464CA1009002A82F
:101B7000FEF7C2FB02A801F0ABF94049D1F86300BF
:101B800001F08EFC07464B49384601F0A7FB07469B
:101B9000044601F015FB05462A460B4646A102A85D
:101BA000FEF7AAFB02A801F093F93449B1F86700E7
:101BB00001F08EFC07464549384601F08FFB074689
:101BC000044601F0FDFA05462A460B4640A102A84C
:101BD000FEF792FB02A801F07BF9284890F85C0020
:101BE00003280CDC254890F85C003E4951F8202081
:101BF0003DA102A8FEF780FB02A801F069F91F4889
:101C000090F84F203BA102A8FEF776FB02A801F056
:101C10005FF91A480078642190FBF1F201FB12048D
:101C200022463AA102A8FEF767FB02A801F050F98C
:101C3000124890F840000090104890F83F30B0F8FB
:101C40003D2038A102A8FEF757FB02A801F040F999
:101C50000A4890F843000090084890F8423090F805
:101C6000412037A102A8FEF747FB02A801F030F996
:101C70003AA001F02DF90FB0F0BD0000A002002045
:101C80000050C3474C6F6E6769747564653A252EC2
:101C90003566202531632020200000004C617469E6
:101CA000747564653A252E35662025316320202021
:101CB0000000000000002041416C74697475646587
:101CC0003A252E31666D20202020200000007A4425
:101CD00053706565643A252E33666B6D2F6820203E
:101CE0002020200000000020466978204D6F6465A8
:101CF0003A25730056616C696420736174656C6C7D
:101D00006974653A253032640000000056697369D1
:101D1000626C6520736174656C6C6974653A25301A
:101D20003264000055544320446174653A253034D0
:101D3000642F253032642F253032642020200000AB
:101D40005554432054696D653A253032643A253044
:101D500032643A2530326420202000004F766572CC
:101D60000A00000000BFFEE708B50121102000F0C6
:101D70007BFB4FF40050ADF8000010208DF80300FD
:101D800003208DF8020069460448FFF718FE4FF45F
:101D900000510248FFF79EFE08BD00000010014000
:101DA00000BFFEE70246134610E010782A2805D04F
:101DB0001078202802DB10787A2801DDFF20704798
:101DC00010782C2801D1481EC1B2521C0029ECD138
:101DD000D01AC0B2F3E70000F8B505460F4616A1C9
:101DE0003846FEF7EFFB064606213046FFF7DAFFDE
:101DF0000446FF2C05D03019694600F05AFA85F8E0
:101E00004E0007213046FFF7CDFF0446FF2C05D0DA
:101E10003019694600F04DFA85F84F000921304627
:101E2000FFF7C0FF0446FF2C05D03019694600F0CB
:101E300040FAC5F86300F8BD244750474741000009
:101E40002DE9F8430546884629A14046FEF7BAFB2E
:101E5000064602213046FFF7A5FF0446FF2C05D0B9
:101E60003019694600F025FA85F85C00002713E078
:101E7000F81CC1B23046FFF795FF0446FF2C08D08E
:101E80003019694600F015FAC1B205F15000C1558C
:101E900000E003E0781CC7B20C2FE9DB00BF0F2184
:101EA0003046FFF77FFF0446FF2C05D03019694606
:101EB00000F0FFF9A5F85D0010213046FFF772FF32
:101EC0000446FF2C05D03019694600F0F2F9A5F858
:101ED0005F0011213046FFF765FF0446FF2C05D057
:101EE0003019694600F0E5F9A5F86100BDE8F8830E
:101EF00024475047534100002DE9FC5F07468A46BE
:101F00004FF00008CDF804A044A10198FEF75AFB59
:101F10000646F079303800F0FF0B03213046FFF71A
:101F200041FF0546FF2D04D07019694600F0C1F944
:101F300038704FF000096CE038A10198FEF742FBC1
:101F4000064600245CE0042000EB8400C1B2304669
:101F5000FFF728FF0546FF2D09D07019694600F0EC
:101F6000A8F9C1B208EB8802781C815400E049E06E
:101F7000052000EB8400C1B23046FFF713FF054691
:101F8000FF2D0AD07019694600F093F9C1B208EB31
:101F90008802781C1044417000E033E0062000EB1A
:101FA0008400C1B23046FFF7FDFE0546FF2D0AD082
:101FB0007019694600F07DF981B208EB8802781C3F
:101FC0001044418000E01DE0072000EB8400C1B216
:101FD0003046FFF7E7FE0546FF2D0AD07019694627
:101FE00000F067F9C1B208EB8802781C1044017157
:101FF00000E007E008F1010000F0FF08601CC4B237
:10200000042CA0DB00BF701C019009F1010000F05E
:10201000FF09D94590DBBDE8FC9F000024475047ED
:10202000535600002DE9F04F85B00446884682A142
:102030004046FEF7C7FA074601213846FFF7B2FED1
:102040000546FF2D23D0781904A900F032F9824605
:102050009DF810100A2000F021F9BAFBF0F642F2C8
:102060001070B6FBF0F0C1B2412001556420B6FB00
:10207000F0F06421B0FBF1F201FB120142200155A6
:102080006420B6FBF0F100FB1161432001550321F0
:102090003846FFF787FE0546FF2D43D0781904A97F
:1020A00000F007F906469DF81000801CC1B20A2016
:1020B00000F0F4F8B6FBF0F060649DF81000801CAE
:1020C000C1B20A2000F0EAF8B6FBF0F100FB116A99
:1020D000504601F0FDF981469DF81000C0F1050061
:1020E000C1B20A2000F0DAF8009001F0F1F983465D
:1020F000494601F001FA8246514901F0EFF8052105
:1021000002900A2000F0CAF8616C00FB01FA504608
:1021100001F0DEF90190029901F07EF8039001F0E0
:102120009FF9606404213846FFF73CFE0546FF2D09
:1021300002D0785D84F8480005213846FFF732FE6A
:102140000546FF2D45D0781904A900F0B2F80646DF
:102150009DF81000801CC1B20A2000F09FF8B6FB69
:10216000F0F044F8490F9DF81000801CC1B20A201D
:1021700000F094F8B6FBF0F100FB116A504601F054
:10218000A7F981469DF81000C0F10500C1B20A20F0
:1021900000F084F8009001F09BF98346494601F075
:1021A000ABF98246264901F099F8052102900A20F0
:1021B00000F074F8216800FB01FA504601F088F93C
:1021C0000190029901F028F8039001F049F944F8D0
:1021D000490906213846FFF7E5FD0546FF2D02D0E7
:1021E000785D84F84D0009213846FFF7DBFD054690
:1021F000FF2D1ED0781904A900F05BF8064642F2C4
:102200001070B6FBF0F0C1B2402001556420B6FB5F
:10221000F0F06421B0FBF1F201FB12013F20015507
:102220006420B6FBF0F100FB116000F5FA60A4F841
:102230003D0005B0BDE8F08F4750524D430000000F
:1022400000007042F8B504460D4612A12846FEF77C
:10225000B9F9064607213046FFF7A4FD0746FF2FD0
:1022600016D0F019694600F024F8A4F867009DF82C
:10227000000003280CDA9DF80000C0F10300C1B291
:102280000A2000F00BF8B4F867104843A4F8670080
:10229000F8BD0000244750565447000010B50246D0
:1022A000012000E050430B1EA1F10104E1B2F9D17D
:1022B00010BD2DE9F34F81B007463C460020009049
:1022C000834681460026804628E020782D2802D1CA
:1022D00048F00208641C20782C2802D020782A2894
:1022E00000D11CE020782E2803D148F00108641C9E
:1022F00009E02078392802DC2078302803DA4FF012
:10230000000900260BE008F0010010B1701CC6B2F5
:1023100003E009F1010000F0FF09641CD5E700BFEC
:1023200008F0020000B17F1C00250EE0A9F10100B9
:10233000401BC1B20A20FFF7B1FF795D3039009A26
:1023400000FB01200090681CC5B24D45EEDB052E58
:1023500000DD05260298067000250EE0701E401B69
:10236000C1B20A20FFF79AFF09F101012944795C03
:10237000303900FB01BB681CC5B2B542EEDB31460B
:102380000A20FFF78BFF009901FB00BA08F002005A
:1023900008B1CAF1000A5046BDE8FE8F7047000040
:1023A00070B5002100230F22C47804B3154C2468B3
:1023B00004F4E064C4F5E064210AC1F10403CA40F6
:1023C000447804FA03F184781440214309010E4C47
:1023D0000678A155047804F01F050124AC40057867
:1023E0006D11AD0005F1E025C5F8004109E0047864
:1023F00004F01F050124AC40044D0678761145F821
:10240000264070BD0CED00E000E400E080E100E05B
:1024100002490143024A1160704700000000FA05BA
:102420000CED00E07047000029B1064AD269024372
:10243000044BDA6104E0034AD2698243014BDA615A
:10244000704700000010024029B1064A1269024399
:10245000044B1A6104E0034A12698243014B1A617A
:10246000704700000010024029B1064A92690243F9
:10247000044B9A6104E0034A92698243014B9A61DA
:10248000704700000010024029B1064AD26802439A
:10249000044BDA6004E0034AD2688243014BDA60FD
:1024A000704700000010024030B5002100220024D7
:1024B00000232D4D6D6805F00C0121B1042905D0D4
:1024C000082923D105E0294D056022E0274D05604C
:1024D0001FE0254D6D6805F47012234D6D6805F4FD
:1024E0008034022505EB92421CB9214D554305600D
:1024F0000BE01D4D6D6805F400351DB11C4D5543B5
:10250000056002E0194D5543056002E0174D056076
:1025100000BF00BF144D6D6805F0F0010909154DAD
:102520006B5C0568DD4045600F4D6D6805F4E0614A
:10253000090A104D6B5C4568DD4085600A4D6D6889
:1025400005F46051C90A0B4D6B5C4568DD40C56000
:10255000054D6D6805F44041890B074D6B5CC568FE
:10256000B5FBF3F5056130BD0010024000127A00A2
:1025700000093D003200002042000020704710B5E5
:1025800000F002F810BD00000CB500200190009092
:102590003348006840F480303149086000BF30485B
:1025A000006800F4003000900198401C01900098F1
:1025B00018B90198B0F5A06FF1D12948006800F46E
:1025C000003010B10120009001E000200090009840
:1025D000012843D12348006840F0100021490860D9
:1025E0000846006820F0030008600846006840F0D4
:1025F000020008601A484068194948600846406867
:1026000048600846406840F480604860084640687A
:1026100020F47C1048600846406840F4E8104860A8
:102620000846006840F08070086000BF0C480068F1
:1026300000F000700028F9D00948406820F003003D
:10264000074948600846406840F00200486000BF03
:102650000348406800F00C000828F9D10CBD0000C8
:102660000010024000200240042808D14FF0E02171
:10267000096941F004014FF0E022116107E04FF0D9
:10268000E021096921F004014FF0E0221161704757
:102690007047000010B51348006840F00100114970
:1026A000086008464068104908400E4948600846DE
:1026B00000680E4908400B4908600846006820F48D
:1026C000802008600846406820F4FE0048604FF40F
:1026D0001F008860FFF753FF4FF000600449086057
:1026E00010BD0000001002400000FFF8FFFFF6FEE2
:1026F00008ED00E021B1028842F00102028004E00E
:1027000002884FF6FE731A400280704710B500BF72
:1027100040F22551124800F0ECF860B11048001D5D
:102720000088C1B20F4802880088401C0D4B1880F9
:102730000D48815412E040F22441094800F0D9F8D4
:1027400060B107480088C4B20548001D0088C4B2C3
:102750000448008840F400400249088010BD000091
:10276000003801402C0000203E03002010B500BFBF
:1027700040F22551114800F0BCF858B10F49091D2D
:102780000988CAB20E490888411C0D4B19800D49B1
:102790000A5412E040F22441084800F0AAF860B15F
:1027A00006480088C4B20548001D0088C4B2044829
:1027B000008840F400400249088010BD00440040F9
:1027C00030000020B608002010B500BF40F22551AF
:1027D000114800F08EF858B10F49091D0988CAB296
:1027E0000E490888411C0D4B19800D490A5412E00E
:1027F00040F22441084800F07CF860B106480088A7
:10280000C4B20548001D0088C4B20448008840F4E2
:1028100000400249088010BD004800402E00002002
:102820000604002021B1828942F40052828104E032
:1028300082894DF6FF731A408281704710B50446B5
:102840002048844209D101218803FFF71DFE0021A1
:102850004FF48040FFF718FE32E01B48844209D154
:1028600001214804FFF7F0FD00214FF40030FFF78D
:10287000EBFD25E01548844209D101218804FFF7CA
:10288000E3FD00214FF48020FFF7DEFD18E0104843
:10289000844209D10121C804FFF7D6FD00214FF47D
:1028A0000020FFF7D1FD0BE00A48844208D1012146
:1028B0000805FFF7C9FD00214FF48010FFF7C4FDA4
:1028C00010BD0000003801400044004000480040B6
:1028D000004C00400050004002460020B1F5007F4F
:1028E00000D100BF13880B400BB1012000E0002095
:1028F000704770B50246002400230025002040F6F2
:102900006A16B14200D100BFC1F3421501F01F03A6
:10291000012606FA03F3012D02D19689334006E021
:10292000022D02D1168A334001E0968A33400C1200
:10293000012606FA04F41688344013B10CB10120C4
:1029400000E0002070BDF0B50346002400260025FD
:10295000002040F66A17B94200D100BF1846C1F303
:10296000421401F01F06012707FA06F5012C01D1D8
:102970000C3004E0022C01D1103000E014301AB108
:1029800007682F43076002E00768AF430760F0BDA8
:102990002DE9F04786B005460E460024A24600BF4A
:1029A000A1460027B08900B100BF2F462C8A4CF603
:1029B000FF700440F08804432C82AC894EF6F3107B
:1029C0000440B08831890843718908430443AC81CD
:1029D000AC8A4FF6FF400440B0890443AC8201A8A2
:1029E000FFF762FD1F48874202D1DDF810A001E029
:1029F000DDF80CA0A88900F4004040B10AEBCA0041
:102A000000EB0A1031684900B0FBF1F807E00AEB6F
:102A1000CA0000EB0A1031688900B0FBF1F86420AD
:102A2000B8FBF0F004012009642101FB1089A8899A
:102A300000F4004040B1322000EBC900B0FBF1F0DF
:102A400000F00700044308E0322000EB0910642185
:102A5000B0FBF1F000F00F0004432C8106B0BDE89C
:102A6000F087000000380140C1F3080282807047FF
:102A700000BFFEE7490050EAC12018BF04204A0DFC
:102A800018BF40F0010040F2FF72B2EB515F08BF87
:102A900040F00200012808BF0520704730380A289E
:102AA00001D20120704700207047014600BF7047E7
:102AB00010B56FF00400FFF7D7FD0A4800680A4917
:102AC000B0FBF1F0094908700846007800EB4001BE
:102AD000C1EBC0104FF6FF7101EAC0000449088045
:102AE00010BD00001000002000127A002400002019
:102AF000260000200146114A12884A434FF0E02385
:102B00005A6100229A611A46126942F001021A6162
:102B100000BF4FF0E022106900F001021AB100F48A
:102B20008032002AF5D04FF0E022126922F0010233
:102B30004FF0E0231A6100229A61704726000020BE
:102B400000BF054A128802F04002002AF9D0C2B242
:102B5000014B1B1D1A80704700380140CCB0002487
:102B600000BF00BF00269C4AD2E9001092684B9239
:102B700049914A90984A0C3207CA46AB07C348228B
:102B8000964934A8FDF74FFD1422934918312FA818
:102B9000FDF749FD202292A127A8FDF744FD14224C
:102BA0008D492C3122A8FDF73EFD342294A115A8B1
:102BB000FDF739FD3C228849403106A8FDF733FD79
:102BC000854A7C3207CA03AB07C3834A883207CAE7
:102BD0008DE807004FF4A060FFF71AFCFFF768FFCD
:102BE0004FF4165000F09CF94FF4165000F04EFAD6
:102BF0004FF4165000F0EAF98EA0FDF771FB8FA09C
:102C000000F066F9FFF7B0F800208E49086046A88A
:102C100000F05EF949A800F033F94FF44870FFF76F
:102C200069FFFEF791FE49A800F052F986A000F076
:102C30004FF946A800F024F94FF44870FFF75AFF07
:102C4000FEF782FE46A800F043F97FA000F040F9AD
:102C500034A800F015F94FF4FA70FFF74BFFFEF7B8
:102C600073FE34A800F034F977A000F031F978A0B1
:102C700000F02EF92FA800F003F94FF4FA70FFF7D7
:102C800039FFFEF761FE2FA800F022F96EA000F0D8
:102C90001FF96FA000F01CF927A800F0F1F84FF41D
:102CA000FA70FFF727FFFEF74FFE27A800F010F994
:102CB00065A000F00DF966A000F00AF922A800F066
:102CC000DFF84FF4FA70FFF715FFFEF73DFE22A87C
:102CD00000F0FEF85CA000F0FBF85DA000F0F8F852
:102CE00015A800F0CDF84FF4FA70FFF703FFFEF7D8
:102CF0002BFE15A800F0ECF853A000F0E9F854A062
:102D000000F0E6F806A800F0BBF84FF4FA70FFF701
:102D1000F1FEFEF719FE06A800F0DAF84AA000F06E
:102D2000D7F858E00120FFF7E5FE4B48008800F493
:102D30000040B0B100BF49A000F0CAF800204649E9
:102D400008804849085548494848FEF7C5FE701CA8
:102D500086B2052096FBF0F100FB116008B9FEF782
:102D6000D3FE4348008800F4004018B34048008870
:102D7000C0F30E003E49088000240EE02046621C8D
:102D8000D4B23C4A115C3C48FFF76EFE00BF4021C4
:102D90003948FFF7A1FD0128F9D135490888411EBE
:102DA000334A11800028E9D134A000F091F80020C6
:102DB0002F4908804FF4967095FBF0F100FB1150FD
:102DC00038B92048006808B9012000E000201D49FA
:102DD0000860681C85B2A5E780370008E83800085D
:102DE00041542B4D5154544F50454E3D312C312CB4
:102DF000302C302C302C22222C22220D0A000000F4
:102E000041542B4D5154545055423D2274657374B6
:102E10005F6D717474222C322C312C302C302C22AA
:102E2000757064617465206D657373616765220DEB
:102E30000A000000312D75310A000000312B753376
:102E40000A000000B40122426F76657200000000A3
:102E500073746172740000002C000020537461725E
:102E6000740000005E0600203E030020A002002047
:102E70002E0000200604002000480040332A0A00EB
:102E80000FB438B505A800900F48009A0499FDF7D3
:102E900015FA002000900C48FDF7A6FB85B200242F
:102EA0000DE000BF40210948FFF716FD0028F9D0CA
:102EB0000548015D0548FFF7D7FD601C84B2AC42B0
:102EC000EFDB38BC5DF814FB0E0B00200044004023
:102ED0000FB438B505A800900F48009A0499FDF783
:102EE000EDF9002000900C48FDF77EFB85B2002430
:102EF0000DE000BF40210948FFF7EEFC0028F9D0A3
:102F00000548015D0548FFF7AFFD601C84B2AC4287
:102F1000EFDB38BC5DF814FB5E0600200048004083
:102F200010B586B00446012144F20400FFF79CFA74
:102F30004FF40070ADF8140003208DF8160018202F
:102F40008DF8170005A91F48FEF739FD4FF4806082
:102F5000ADF8140004208DF8170005A91948FEF7F4
:102F60002EFD25208DF8000003208DF801008DF83E
:102F7000020001208DF803006846FFF711FA019462
:102F80000020ADF80800ADF80A00ADF80C00ADF86F
:102F900010000C20ADF80E0001A90B48FFF7F8FC5B
:102FA000012240F224410848FFF7CDFC012240F203
:102FB00025510548FFF7C7FC01210348FFF732FC04
:102FC00006B010BD000801400038014010B586B0C1
:102FD000044601210420FFF747FA01214804FFF7C6
:102FE00023FA2748FFF72AFC0420ADF8100003203D
:102FF0008DF8120018208DF8130004A92148FEF75F
:10300000DEFC0820ADF8100004208DF8130004A9A0
:103010001C48FEF7D4FC00940020ADF80400ADF885
:103020000600ADF80800ADF80C000C20ADF80A0061
:1030300069461348FFF7ACFC01211148FFF7F2FB8A
:10304000012240F225510E48FFF77DFC012240F29B
:1030500024410B48FFF777FC26208DF8140002204E
:103060008DF8150003208DF8160001208DF817004B
:1030700005A8FFF795F900200349088006B010BDA8
:1030800000440040000801403000002010B586B028
:10309000044601210820FFF7E7F901218804FFF722
:1030A000C3F92A48FFF7CAFB4FF48060ADF810005F
:1030B00003208DF8120018208DF8130004A924486D
:1030C000FEF77DFC4FF40060ADF8100004208DF891
:1030D000130004A91E48FEF772FC00940020ADF80E
:1030E0000400ADF80600ADF80800ADF80C000C20A7
:1030F000ADF80A0069461548FFF74AFC012113485C
:10310000FFF790FB012240F225511048FFF71BFC0E
:10311000012240F224410D48FFF715FC27208DF8CD
:10312000140002208DF8150003208DF816000120F0
:103130008DF8170005A8FFF733F90020054908802E
:1031400000210548FFF7D6FA06B010BD0048004040
:10315000000C01402E0000200014004010B5002992
:103160000AD00878002807D005487844FDF7F0FF1A
:10317000002801D0002010BD0248784410BD000096
:10318000FE070000F607000010B500290AD00878F5
:10319000002807D005487844FDF7DAFF002801D061
:1031A000002010BD0248784410BD0000EE0700006A
:1031B000E60700000808A0F500114FEA310170474A
:1031C00043004FEAD30C4FEA3C0C43401FBF40077B
:1031D0000CF1605113F0FE4F70471CF0006F03D1EB
:1031E00000200CF0004170470CF0004343EA50709F
:1031F00010B540EACC0000F000FA00BF00000092D9
:103200004FEA0001FFF7D6BF4FF000414FF000003A
:10321000A1F500217047000090EA010F48BF81F03E
:10322000004100F13C82421A3CBF801A89184FEAE3
:10323000D0524FF07F4C1CEA410FA2EBD15318BF84
:103240009CEA026F00F03B804FF0004C4CEA0020FB
:103250004CEA012121FA03FC10EB0C0C1ED202F106
:10326000FF325FEA1C2040EBC25038BF70471CF0B1
:103270007F0F4FEA400C18BFBCF17F4F38BF70473B
:10328000C3F12003994008BF20F00100BCF17F4F3B
:1032900038BF7047A0F1C04000F0F5B94FEA3C00DC
:1032A000000A40EBC25028BF1CF0FF0F4FEA400C51
:1032B000E6D018BFBCF17F4F38BF7047EAE79CEA01
:1032C000026F05D010EA5C0F08BF00F000407047A5
:1032D00010B500F092F900BF64FBBE3E4FF47F0CC6
:1032E0001CEAD0121EBF1CEAD11392EA0C0F93EA1B
:1032F0000C0F00F0858090EA010F48BF42F4807205
:1033000040F4000C41F400002CF07F4120F07F409D
:1033100000B58142A2EB03020FF2081CACEB504E49
:10332000C0F100009EF800E04FEA4E0E00FB0EFCDC
:1033300038BF49004FEA2C1C02F5FA020CFB0EF3D1
:103340004FEACE1E4FEA112C4FEAC1210EEB635E0D
:1033500042EB22420EFB0CFC4FEA1C5300FB031114
:103360004FEA112C4FEA01310EFB0CFC4FEADC4C0A
:1033700000FB0C11C14228BF09184CEB03335DF868
:1033800004EB10EB410143EBC250B2F57C0F38BFA8
:10339000704729D512F0F00F1CBF00F1C04000F0BB
:1033A00000407047008182838485868788898B8C62
:1033B0008D8E8F919293959697999A9C9D9FA0A29E
:1033C000A3A5A7A8AAACAEB0B2B3B5B7B9BCBEC0EE
:1033D000C2C5C7C9CCCED1D4D7D9DCDFE2E6E9EC8F
:1033E000F0F3F7FAFE0000004FEA400C0CF1807C8D
:1033F000BCF17E4F28BF7047B0F1C04000F043B928
:1034000090EA010F0CEAD11348BF42F48072624582
:1034100038BF634507D213F47F0F16D080EA01004E
:1034200000F00040704710B500F0E7F8097EFC3E60
:1034300000F005B880EA010000F00040704780EA23
:10344000010000F0004000F01EB912F47F0F04BF2D
:103450000248704780EA010000F015B90000C07F03
:10346000C10DD1F19E0206DB4FEA002343F0004379
:1034700023FA02F07047004207D54FEA4001B1F14C
:10348000FE4F02D24FF00000704710B500F0B5F8C3
:1034900049922480002070476FEA200070470000A6
:1034A00010F0004148BF4042B0FA80F310FA03F236
:1034B000C3F19D030BD051EAC35101EB1220530617
:1034C00038BF704700F1010008BF20F001007047CD
:1034D000B0FA80F310FA03F2C3F19D030AD0D905C4
:1034E00001EB1220530638BF704700F1010008BFFE
:1034F00020F00100704700004FF47F0C1CEAD0124E
:103500001EBF1CEAD11392EA0C0F93EA0C0F00F0D5
:10351000478090EA010F48BF42F480724FF0004CA0
:103520004CEA00204CEA012102EB0302A0FB01134C
:10353000A2F50002002918BF43F001035B0028BF79
:103540004FEA330342EB22425FEA132C4CEBC250AA
:103550002EBFBCEB436FB2F57C0F70474FEA036C94
:10356000BCF1004F08BF20F00100B2F57C0F38BF5E
:1035700070470BD582F0FF0212F5803FC8BF70473D
:1035800000F1C040D8BF00F00040704700F5000CCB
:103590005FEA4C0C48BF7047B0F1C04000F073B810
:1035A00090EA010F0CEAD11348BF42F480726245E1
:1035B00038BF634504D280EA010000F00040704744
:1035C00010B500F01AF800BF8900013E00F007B8FE
:1035D00000F009B85FEA410C5FEA1C6C08D080EA91
:1035E000010000F050B85FEA400C5FEA1C6CF6D1B5
:1035F0004FF00040A0F5800070470EF1020E2EF053
:10360000030E5EF8044B244204D44FEA4102B2F1A7
:103610007F4F11D84FEA4003B3F17F4F0CD80ED142
:103620004FEAD07CB2F17F4F0CEB4C0C0CF1020C4A
:1036300008BF4CEBD17C04E04FF0080C01E04FEAEE
:10364000D17C0CEB4C0324FA03F404F00704B4F12E
:10365000040C06D20EEB840CBDE810404CF0010CBB
:103660006047DFE80CF0070802024FF00040A0F5C9
:10367000800010BD0846420018BFD2F1807288BF9A
:1036800000F0004010BDFF2141EAD050C005704756
:1036900090EA010F48BF81F000413FF5C4AD421AE6
:1036A00004D882F00042A0EB020011444FEAD0524D
:1036B0004FF07F4C1CEA410FA2EBD15318BF9CEA9C
:1036C000026F4AD04FF0004C4CEA00204CEA012136
:1036D00021FA03FCB0EB0C0C0FD412F0FE0F36D025
:1036E0005FEA4C001DD5001240EBC25038BF704756
:1036F0001CF03F0F18BF70470BE0A2F101025FEA18
:103700001C2040EBC25038BF70471CF07F0F18BF21
:103710007047C3F12003994014BF401E20F0010000
:10372000704780084FEA122308BF7047B0FA80FC48
:10373000A2EB0C02CCF1280C60FA0CF093EA122FE9
:1037400004BF00EBC25070474FEAC3707047130AC2
:103750005FEADC1008BF7047F6E79CEA026F04D00E
:1037600010EA5C0F08BF0020704710B5FFF745FF57
:1037700040DFF63E81F000407047FDF7E0B8000002
:1037800041540D0A000000000000000041542B438A
:1037900053510D0A0000000041542B4D5154544325
:1037A00046473F0D0A0000000000000041542B4D29
:1037B000515454535441543F0D0A0000000000007E
:1037C00041542B4D5154545055423D2274657374ED
:1037D0005F6D717474222C322C312C302C302C22E1
:1037E000757064617465206D6573736167653232ED
:1037F00032220D0A000000000000000041540D0AB2
:10380000000000000000000041540D0A000000000C
:103810000000040000080000000000000002000199
:1038200000001000000000000000000030313233C2
:1038300034353637383941424344454640305800E4
:103840003031323334353637383961626364656616
:103850004030780002400000000000A0000000009E
:1038600005400000000000C8000000000C400000FF
:103870000000409C00000000194000000020BCBE79
:103880000000000034400000BFC91B8E000000048F
:10389000B5400000504BCFD06607E2CF01000000DA
:1038A0006C4100003E8251AADFEEA7340100000007
:1038B000D9420000DCB5A0E23A301F97FFFFFFFFBE
:1038C000B4450000FD25A0C8E9A3C14FFFFFFFFFDD
:1038D000FF3F00000000008000000000FF3F0000EC
:1038E000000000800000000041542B4D515454430F
:1038F00046473D2233392E3130362E3136362E367C
:10390000222C313838332C226D7174746A735F69DC
:1039100064303037222C36302C2261646D696E227F
:103920002C22313233343536222C310D0A0000007E
:10393000203244200000000020334420000000001A
:103940004661696C00000000943A00080000002005
:10395000480000006C010008DC3A00084800002024
:1039600080130000880100081C00000043000000D4
:10397000F8FFFFFF0C0000000E0000000F00000029
:103980002E0000001001000043000000F8FFFFFFC0
:103990000040404040404040404041414141414062
:1039A0004040404040404040404040404040404017
:1039B00040050202020202020202020202020202A6
:1039C00002202020202020202020200202020202AB
:1039D0000202909090909090101010101010101003
:1039E000101010101010101010101010020202020F
:1039F0000202888888888888080808080808080853
:103A0000080808080808080808080808020202024E
:103A10004000000000000000000000000000000066
:103A20000000000000000000000000000000000096
:103A30000000000000000000000000000000000086
:103A40000000000000000000000000000000000076
:103A50000000000000000000000000000000000066
:103A60000000000000000000000000000000000056
:103A70000000000000000000000000000000000046
:103A80000000000000000000000000000000000036
:103A900000000000403900084039000830390008B3
:103AA0003839000800A24A040000000000000000AD
:103AB00001020304060708090000000000000000DE
:103AC00000000000000000000000010203040102E9
:0C3AD000030406070809020406080000B1
:040000050800027974
:00000001FF
