:020000040800F2
:10000000481500207902000821240008E91D000895
:10001000251E0008591B0008F52A000800000000F2
:1000200000000000000000000000000001260008A1
:100030005D1B000800000000A92400081527000827
:10004000930200089302000893020008930200083C
:10005000930200089302000893020008930200082C
:10006000930200089302000893020008930200081C
:10007000930200089302000893020008930200080C
:1000800093020008930200089302000893020008FC
:1000900093020008930200089302000893020008EC
:1000A00093020008930200089302000893020008DC
:1000B00093020008930200089302000893020008CC
:1000C00093020008930200089302000893020008BC
:1000D0009302000891270008F12700084D28000826
:1000E000930200089302000893020008930200089C
:1000F000930200089302000893020008930200088C
:10010000930200089302000893020008930200087B
:10011000930200089302000893020008930200086B
:10012000930200089302000893020008930200085B
:1001300000F002F800F090F80AA090E8000C824469
:100140008344AAF10107DA4501D100F085F8AFF246
:10015000090EBAE80F0013F0010F18BFFB1A43F0A5
:10016000010318474837000068370000103A24BFE1
:1001700078C878C1FAD8520724BF30C830C144BF0C
:1001800004680C607047000000230024002500264E
:10019000103A28BF78C1FBD8520728BF30C148BFEA
:1001A0000B6070476E2900F0D382702900F0398609
:1001B000662903F07882652903F07582672903F0C8
:1001C00072826129AFF3008003681B0A28BF41F0E7
:1001D0008001692900F0EA80642900F0E780752930
:1001E00000F0E4806F2900F0C685782900F00586CC
:1001F000E92900F06185E42900F05E85F52900F029
:100200005B85EF2900F0C385F82900F004860368B8
:10021000DB0928BF41F08001632900F0E2847329E3
:1002200000F0E784E32900F09B86F32900F0A08624
:10023000002070471FB500F0FFFD040000200021E2
:1002400002F050FF401C60600020002102F034FFEB
:10025000E0601FBD10B510BD00F020FF1146FFF794
:10026000E9FF02F0AFFC00F047FF03B4FFF7F2FF35
:1002700003BC02F05CFC00000948804709480047C5
:10028000FEE7FEE7FEE7FEE7FEE7FEE7FEE7FEE746
:10029000FEE7FEE704480549054A064B70470000A3
:1002A0001927000831010008480F002048150020D8
:1002B0004811002048110020704700001CB50C4672
:1002C000064B7B4469460090204600F068FC0446DB
:1002D0000020694600F076FC20461CBDFF080000A7
:1002E0000FB41CB5084B06AA7B44694600900598DC
:1002F00000F055FC04460020694600F063FC2046EF
:100300001CBC5DF814FB0000D908000070B5044661
:1003100085690068C10601D5302600E02026C007A7
:1003200007D070BDD4E9012130469047206A401CB7
:1003300020626D1EF6D570BD70B5044685690078E3
:10034000C00707D170BDD4E9012120209047206A61
:10035000401C20626D1EF6D570BD70B50C4605467A
:10036000012A05D02878800600D5EA69002302E03A
:10037000012305E05B1C934202D2E05C0028F9D126
:10038000A869E618C01AA861286A18442862284695
:10039000FFF7BCFF04E0D5E9012114F8010B9047F9
:1003A000B442F8D32846FFF7C7FF70BD2DE9F041EE
:1003B0000646002410687529314616A510D000F0B5
:1003C0005CF9002802DA404213A507E031688A0789
:1003D00001D512A502E0490704D511A5012401E0C9
:1003E00000F054F900210A2206F1240709E0B0FBCD
:1003F000F2FCB0FBF2F302FB1C00303078541846DC
:10040000491C0028F3D123462A463046BDE8F04176
:1004100000F045B9000000002D0000002B00000096
:10042000200000002DE9F05F894604464FF0000AE5
:10043000DFF874B1FB44C0F820A02046E16888478B
:10044000002874D0252806D0D4E901219047206ADD
:10045000401C2062F1E700265F462046E16888479D
:100460002028054607DB312D05D2781910F8200C1D
:1004700008B10643F1E7B00701D526F00406C4F839
:100480001CA00027C4F818A02A2D09D0284602F085
:1004900047FB38B304EB8708303DC8F8185019E023
:1004A00059F8041B204604EB87029161E1688847F4
:1004B000012F054618D1E069002820DA26F0200631
:1004C0001DE0D8F8180000EB800005EB4000303844
:1004D000C8F818002046E1688847054602F020FB6E
:1004E0000028EED1012F0AD02E2D08D12046E16838
:1004F00088477F1C0546022F46F02006C4DBA06912
:10050000002803DA404246F00106A061F00701D05E
:1005100026F010066C2D0BD0682D09D04C2D39D04B
:100520006A2D35D0742D35D07A2D33D016E038E0D1
:10053000E1682F4620468847B842054609D16C2F0E
:1005400026D04FF48060E168064320468847054680
:1005500004E06C2F1AD04FF4807006430DB3A5F160
:100560004100192802D8203546F400664A4629463B
:10057000204626604E46FFF715FE80B101280BD0BD
:10058000F61D26F0070000F1080956E74020E4E7D1
:100590008020D8E70020D6E706F104094DE7284679
:1005A00052E7206ABDE8F09F9C33000030B5054655
:1005B0000B462A4613F8014B12F8010B08B1A04272
:1005C000F8D01CB1002802D06D1CF1E7284630BDE0
:1005D00010B5431C02E010F8011B71B18107FAD17C
:1005E0004FF0013202C88C1A8C4314EAC211F9D0C0
:1005F000C01A0A0603D0C01E10BDC01A10BD0A04DE
:1006000001D0801E10BD0902FCD0401E10BD10B5E7
:10061000203AC0F00B80B1E81850203AA0E81850FA
:10062000B1E81850A0E81850BFF4F5AF5FEA027CBB
:1006300024BFB1E81850A0E8185044BF18C918C02A
:10064000BDE810405FEA827C24BF51F8043B40F8CB
:10065000043B08BF7047D20728BF31F8023B48BFB0
:1006600011F8012B28BF20F8023B48BF00F8012BEE
:100670007047704770477047704709684A0501D551
:1006800040B27047C905FCD500B2704709684A05F9
:1006900001D5C0B27047C905FCD580B270472DE9BD
:1006A000F0470D4699469246044600F12408016839
:1006B000880604D5E06921F01001216000E00120E6
:1006C000A84201DD471B00E00027A1697A1902EB6F
:1006D0000900081AA0612078C00602D42046FFF75E
:1006E00015FE002608E0D4E901211AF8060090471B
:1006F000206A401C761C20624E45F4DB2078C00640
:100700000AD52046FFF702FE06E0D4E90121302099
:100710009047206A401C2062381EA7F10107F4DCD4
:1007200007E0D4E9012118F805009047206A401C31
:100730002062281EA5F10105F3DC2046FFF7FCFD31
:100740002078000602D50220BDE8F0870120FBE7F3
:1007500011680268006A530501D508700AE0D305E4
:1007600001D5088006E0130603D5C217C1E90002CF
:1007700000E008600120704770472DE9FF4F0C46EC
:100780001E464FF0FF378BB0D2E90001DDF86080E4
:100790000A908A46C1F30A5505B93D46002108462C
:1007A0004FF00000BAF1000F00F4400005DA00EB52
:1007B00080004FF4400101EA50004FEA9059B9F12E
:1007C000010F00DDB9460A9850EA4A000ED044F6FF
:1007D0001050A5F2FF3545432F14B8F1000F1ED07D
:1007E0007542291E1EDDC9F100021CE0B8F1010F9F
:1007F0004FF0000001D0302103E0F24305E0215426
:10080000401CB042FBDB30460022002121540B99F2
:10081000C1F80880C1E900200FB0BDE8F08FBD1B12
:100820006D1CDEE74A4600DA694206A800F0A4FB28
:1008300006AB93E8070003AB83E8070050460A992C
:1008400000F0A4FC8DE80700A0F500501F380090D0
:100850000398002D09DD42F21F014A46084403A90E
:100860000390684600F003FF08E0A0F500504A46F8
:100870001F3803A90390684600F00DFF8DE80700BC
:100880000004000C03D04FF0FF30410800E0104698
:10089000B8F1000F03D00022009215461EE0751E2D
:1008A00005D400F0CDFA303262556D1EF9D5B3464D
:1008B0000122084302D000227F1C04E02078302867
:1008C00001D100227F1E002A099786D01DE0112D3C
:1008D00007DA00F0B5FA303262556D1C50EA0102B9
:1008E000F5D1084302D00098C8B10EE00021681E7F
:1008F00005E0235C625C63542254401E491C814223
:10090000F7DBAB46A81B401E0990002004F80B0043
:100910000B98099AC0F80880C0E9002B7CE71126E3
:100920004FF0000859E72DE9F04F88460446D21DE4
:1009300022F0070191B0D1E90001CDE90A0102F0EE
:10094000DBF802460B98C00F01D02D2007E020688D
:10095000810701D52B2002E0202101EAC000032AF3
:10096000099001D0072A05DB03464146204600F0E6
:10097000ADFA0BE12078800601D5E06900E00620A1
:10098000B8F1650F814606D0B8F1660F18D0B8F1FE
:10099000670F70D131E00020B9F1110F009001DB39
:1009A000112301E009F101030AAA01A90CA8FFF72C
:1009B000E4FEDDE90C70002609F10105834647E0FD
:1009C00001204B4600904FF000470AAA01A90CA84D
:1009D000FFF7D3FEDDE90DB00C995D46002610B996
:1009E00009F101000D18B9EB050003D4C0F1FF3681
:1009F00009F10105A5EB09002BE0B9F1010F01DABE
:100A00004FF001090020B9F1110F0090484601DDB7
:100A1000112300E003460AAA01A90CA8FFF7ADFEC6
:100A2000DDE90C704D4600268346207800070AD485
:100A3000AB4500DA5D4601A8012D04DD411911F82E
:100A4000011C302907D04F4502DA17F1040F04DAF0
:100A5000012082460FE06D1EEEE7002F02DCED1B49
:100A60003E4403E0781CA84200DD7D1CB81B00F169
:100A7000010A4FF000472078000703D4AA4501DBA4
:100A80004FF0FF3A0021B7F1004F0DF143088DF808
:100A9000431024D002202B23002F01DA7F422D2384
:100AA0000A21021EA0F1010000DC5FB197FBF1FCFE
:100AB00097FBF1F201FB1C7C17460CF1300C08F897
:100AC00001CDEEE7A8F1010003702188090501D5E9
:100AD000452100E06521A0F1010800F8011C0998FA
:100AE0000FA9A1EB0807FF1D00B10120411901EB7F
:100AF000EA70A1693844081A401EA0612078C00637
:100B000002D42046FFF702FC099828B1D4E901215C
:100B10009047206A401C20622078C00622D52046DB
:100B2000FFF7F4FB1EE0002E04DBB34502DD01A855
:100B3000805D00E03020D4E901219047206A401C0C
:100B40002062761CAAF101005FEA000A0AD100F0D7
:100B500073F9C0680168405CD4E901219047206ABC
:100B6000401C2062281EA5F10105DCDC07E0D4E969
:100B7000012118F8010B9047206A401C2062381EA2
:100B8000A7F10107F3DC2046FFF7D6FB032011B0E5
:100B900043E6000001694A1C02610878704700B50D
:100BA0008FB0CDE901310021059105497944CDE9A6
:100BB000031011466846FFF735FC0FB000BD00007A
:100BC000E5FFFFFF0A6802F8010B0A60704710B5E5
:100BD000436913B1AFF3008001E0FFF7BEFB0120D2
:100BE00010BD127800F124010A7000224A7001221F
:100BF000EDE711684FF0FF32E9E700002DE9FF5FF4
:100C000015468A460446DFF8AC80F8440027D8E948
:100C100000103E46CDE9001010E03AF816106A4682
:100C200002A800F017FA411C07D02178890603D5E5
:100C3000E269391891420DD80744761C2078800665
:100C400002D5E069B84205DDAE42E6DB3AF81600AF
:100C50000028E2D1A069C01BA0612046FFF756FB27
:100C6000D8E90010CDE90010002017E03AF818107C
:100C70006A4602A800F0EEF9B0F1FF3F81460BD0C2
:100C800000250DF1080B05E0D4E901211BF8050052
:100C900090476D1C4D45F7D308F10100B0428046E6
:100CA000E4DB206A384420622046FFF745FBBDE8BC
:100CB000FF9F0000DA2B00002DE9F0418046D21D95
:100CC00022F007020025D2E90002F52915A614D06A
:100CD000011E72F1000106DA0023D0EB030063EB82
:100CE000020211A608E0D8F800108B0701D50FA664
:100CF00002E0490701D50EA601251146002408F19E
:100D0000240704E000F09CF830323A55641C50EAA5
:100D10000102F7D12B46324621464046BDE8F0415C
:100D2000FFF7BDBC000000002D0000002B000000FC
:100D30002000000030B4002100F1240408E002F09B
:100D40000705D208303542EA4372DB086554491C76
:100D500052EA0305F3D10468002310A2250707D542
:100D6000A40600D421B1C46901230DA2641EC4618C
:100D700030BCFFF794BC10B5044621461068FFF75D
:100D800085FC02462046BDE810400023D2E7D21D74
:100D900022F00701D1E90023CCE7000000000000A9
:100DA00030000000F0B40D460188090502D5214C41
:100DB0007C4402E01F4C7C440E34002100F12406E8
:100DC00008E002F00F071209E75D42EA03721B090F
:100DD0007754491C52EA0307F3D102780023120723
:100DE00004D5702D06D009B1022311342246F0BC7F
:100DF000FFF755BC01231034F8E770B504460D46E3
:100E000021461068FFF742FC024629462046BDE80D
:100E100070400023C6E7D21D22F00703D3E9002368
:100E2000C0E70368126843F0200303600823C3612E
:100E30000023B7E73C2A000000487047080F002055
:100E400030B5B0F10A024FEA900E71F100034EEA9C
:100E5000817EB0EB0E0061EB91014FEA101E4EEA6D
:100E6000017E10EB0E0041EB11114FEA102E4EEAFD
:100E7000016E10EB0E0041EB11214FEA104E4EEACD
:100E8000014E10EB0E0041EB1141401841F1000101
:100E90004FEAD00040EA41704FEAD10110EB8005E3
:100EA0004FEA810444EA907444EB01046D1944EB69
:100EB0000404521BA3414FF0000348BF0A3200D57F
:100EC00030BD401C41F1000130BD00002DE9F04172
:100ED0001F46044603260168072A01F4006004DB6C
:100EE00008B116A505E016A503E008B115A500E0B8
:100EF00015A521F010002060A069C01EA0610FB1EF
:100F0000401EA0612046FFF701FA4FB1D4E901214C
:100F100038469047206A401C2062C01C206206E0D0
:100F2000206AFAE7D4E9012115F8010B9047761EF3
:100F3000F8D22046FFF700FABDE8F0814E414E009E
:100F40006E616E00494E4600696E660010B54369D9
:100F500013B1AFF3008001E0FFF750FE012010BD98
:100F6000128800F1240182840022C2840122EDE76C
:100F700011684FF0FF32E9E72DE9F0478146164648
:100F80008AB0334878440DC88DE80D003048784465
:100F9000801C03AC0DC884E80D0041F69B3008446A
:100FA000372190FBF1F290FBF1F5A5F1800501FBF3
:100FB00012041B3C02D56442012000E00020DFF84F
:100FC00090A080460027FA44AAF1BE0A0DE0E0078F
:100FD00009D03246684607EB47010AEB810100F071
:100FE0005AFB8DE8070064107F1C002CEFD1184FCE
:100FF0007F44AC3F18E0E80714D007EB04100DF174
:10100000180A90E80E008AE80E00C068F04201D18C
:1010100098190890324606A903A800F03CFB03ABE0
:1010200083E807006D10641C002DE4D13246694648
:10103000B8F1000F03A802D000F019FB01E000F0A6
:101040002AFBC9E90001C9F808200AB0BDE8F08709
:101050000C29000070B516460C46054600F044F811
:10106000036893F80101012806D0FF2C0FD8185D02
:1010700068B101202C7070BDD3F8070132462146BB
:1010800003F2071303442846BDE8704018474FF0A9
:10109000FF3070BD00487047E80E00207546FFF72E
:1010A000F9FFAE4605006946534620F00700854625
:1010B00018B020B5FFF7EEF8BDE820404FF000066D
:1010C0004FF000074FF000084FF0000B21F0070130
:1010D000AC46ACE8C009ACE8C009ACE8C009ACE873
:1010E000C0098D467047000010B5FFF7A5FE001D32
:1010F00010BD00BFF11F000010B50446AFF3008023
:101100002046BDE81040FFF7B0B800004FF0013CAA
:1011100050F8042B51F8043B9A4221D1A2EB0C0366
:10112000934313EACC1317D150F8042B51F8043B26
:101130009A4215D1A2EB0C03934313EACC130BD1C3
:1011400050F8042B51F8043B9A4209D1A2EB0C034E
:10115000934313EACC13DBD04FF00000704700BF7D
:10116000D01A01BAB1FA81F101F0180122FA01F0A6
:10117000CB40C1F12001DBB2C0B2C01A2CFA01F39E
:10118000D11A914311EAC311E6D170475FEA400CCE
:1011900008BF91F0000F4FEA8C234FEAC12243EAC7
:1011A00051514FEA1C5018BF00F5F0404FEA300093
:1011B00018BF41F000415FEA6C5C00F02980BCF18F
:1011C000FF3F08BF40F080407047130C06BF120479
:1011D0004FF0100C4FF0000C130E04BF12020CF174
:1011E000080C130F04BF12010CF1040C930F04BF81
:1011F00092000CF1020CD30F04BF52000CF1010C51
:1012000011464FF00002A0F11F00A0EB0C00704748
:1012100011F0004F08BF704731F000413FF4D5AFE7
:101220000B0C06BF09044FF0100C4FF0000C0B0E16
:1012300004BF09020CF1080C0B0F04BF09010CF1EB
:10124000040C8B0F04BF89000CF1020CCB0F04BF00
:1012500049000CF1010CCCF12003A0EB0C0022FAA8
:1012600003F302FA0CF241EA030100F101007047B6
:1012700020F07F4C80EA030023F07F47ACEB0703AC
:1012800003F57C5300F0004003F1FF032DE9804992
:101290004FEA154B09B44FEA144325EA0B4E24EAF2
:1012A00003480FF2042606EB132749083E785FEA4D
:1012B000320203FB0667C7F5000707FB06F64FEA95
:1012C00054374FEAD64606F1020607FB066CCCF10E
:1012D000005C4FEA1C472CEA074C07FB06F40CFBAA
:1012E00006F504EB15464FEA961634BF00204FF082
:1012F00000404FEAD13706FB07FC4FEA1C4C0CFBC1
:101300000BF7D21B03FB0CF761EB07010CFB0EF78D
:10131000B0EB074072EB17420CFB08F734BFA2EBAF
:101320000742B2EB074261EB17414FEA0C444FEA28
:10133000910706FB07FC4FEA1C4C0CFB0BF7B0EBCC
:10134000C74072EB573203FB0CF734BFA2EBC74226
:10135000B2EBC74261EB57310CFB0EF7B0EBC700A5
:1013600072EB57720CFB08F734BFA2EBC702B2EB6B
:10137000C70261EB5771039F4FEA816141EA921105
:1013800004EBCC044FEAD1374FEA826206FB07FC3C
:1013900042EA90124FEA80604FEA1C4C0CFB0BF7BC
:1013A000D21B03FB0CF761EB07010CFB0EF7B0EB54
:1013B000074072EB17420CFB08F734BFA2EB074261
:1013C000B2EB074261EB17414FEA8C554FEA9107A8
:1013D00004EB9C2406FB07FC4FEA1C4C0CFB0BF7B0
:1013E000B0EBC74072EB573203FB0CF734BFA2EBF4
:1013F000C742B2EBC74261EB57310CFB0EF7B0EBC3
:10140000C70072EB57720CFB08F734BFA2EBC702A0
:10141000B2EBC70261EB577115EB4C254FEA8161C6
:1014200041EA92114FEA82624FEAD13742EA9012C2
:1014300006FB07FC44F100044FEA80604FEA1C4CB5
:101440000CFB0BF7D21B03FB0CF761EB07010CFB4A
:101450000EF7B0EB074072EB17420CFB08F734BFF6
:10146000A2EB0742B2EB074261EB174115EB1C15EB
:101470004FEA813141EA92414FEA823242EA904298
:101480004FEA80304FEA0C7644F1000448EA034307
:101490004EEA0B484FF0000EB2EB080C71EB03075D
:1014A00024BF624639464EEB0E0E4FF0000B00187B
:1014B000524149414BEB0B0BB2EB080C71EB0307AC
:1014C0007BF1000B24BF624639464EEB0E0E4FF007
:1014D000000B0018524149414BEB0B0BB2EB080CCF
:1014E00071EB03077BF1000B24BF624639464EEBDC
:1014F0000E0E51EA020718BF46F0010616EB0E76F3
:1015000055F1000254F1000103D5BDE88901BDE8A1
:101510000088BDE88901BDE80048B619524141EB99
:101520000101A3F10103704780807F7E7D7C7B7A7F
:101530007978777676757473727171706F6E6E6D7F
:101540006C6C6B6A6A696868676666656464636325
:1015500062616160605F5F5E5E5D5D5C5C5B5B5AAB
:101560005A59595858575756565555555454535318
:1015700052525251515050504F4F4F4E4E4D4D4D73
:101580004C4C4C4B4B4B4A4A4A49494948484847BE
:1015900047474746464645454544444444434343FC
:1015A0004342424242414141002B26D4770021D0A0
:1015B0001CB54FEA370703B44FF010004FF010018D
:1015C0004FF000000FBCBDE810400BF1010BBBF168
:1015D000010F08BF5FEA170722BF12F1010211F1E4
:1015E00001014FF0004143F1000300F0004043EAE5
:1015F00000007047F9D35708DAE746EA064613F1C8
:10160000400F4FEA16461FDD13F1200FDFBF1643D0
:101610000A46002120335B42C8D0C3F1200746EAC6
:10162000064602FA07F74FEA164646EA0706C3F1EE
:10163000200722FA03F201FA07F721FA03F14FF02B
:10164000000342EA0702B1E746EA020646EA064616
:101650004FEA164646EA0106BCBF46EA0646360C85
:101660004FF000034FF000024FF000019EE72DE91C
:10167000C048934630B491E8380007C831EA400CBE
:1016800048BF34EA430C03D5FFF7F2FDFFF78CFFA8
:10169000F0BCBDE800882DE9C048934630B491E81D
:1016A000380007C810F0804F08BF13F0804F03D1F7
:1016B00000F005F8FFF778FFF0BCBDE8008820F0E7
:1016C0007F4780EA030023F07F4C07EB0C03A3F570
:1016D0007C5300F00040A3F1FE0392F0000F00F0F5
:1016E000B38095F0000F00F077802DE901494FEAB3
:1016F00011404FEA144621EA004800FB06FC24EAA8
:10170000064708FB06F607FB08F800FB07F718EB8F
:1017100006484CEB164C4FEA124B18EB07484FEAC1
:1017200015464CEB174022EA0B4E0BFB06FC25EA54
:1017300006470EFB06F607FB0EFE0BFB07F71EEB3C
:10174000064E4CEB164C4FF000061EEB074E4CEBD2
:10175000174B18EB0B0840F1000018EB0E0B58EB81
:10176000000840F100008F1A4FF000013CBFC94350
:10177000661B14BFB5EB040C00213CBFC943F61B2C
:101780004FEA17444EEA8E0E27EA04454FEA1C47FB
:1017900004FB07622CEA074C05FB07F70CFB05F678
:1017A00004FB0CFC16EB074642EB174216EB0C460B
:1017B00042EB1C421BEB060658EB0202414146EA93
:1017C0009E0601D5BDE80189B619524141EB0101E0
:1017D000A3F10103BDE801894FEA14454FEA11471F
:1017E00024EA054621EA074C05FB07F406FB07F748
:1017F0000CFB06F105FB0CFC11EB074144EB174415
:101800004FEA124711EB0C4144EB1C4422EA074C0F
:1018100005FB07F206FB07F70CFB06F605FB0CFCC5
:1018200016EB074642EB174216EB0C4642EB1C4503
:101830006A1854F1000148BF7047B619524141EB94
:101840000101A3F10103704795F0000F37D04FEA73
:1018500011424FEA144721EA024624EA074C02FBF0
:1018600007F106FB07F70CFB06F402FB0CFC14EB7C
:10187000074441EB17414FEA154714EB0C4441EB89
:101880001C4125EA074C02FB07F506FB07F70CFB9A
:1018900006F602FB0CFC16EB074645EB174516EB6C
:1018A0000C4645EB1C42121951F1000148BF70472C
:1018B000B619524141EB0101A3F1010370474FEA10
:1018C00014454FEA114724EA054621EA074C05FB77
:1018D00007F106FB07F70CFB06F24FF0000605FBCD
:1018E0000CFC12EB074241EB174112EB0C4251EB9F
:1018F0001C4148BF7047921841EB0101A3F101035D
:101900007047000010B50024C82001F035F91848D0
:10191000008800F4004020B315480088C0F30E0092
:101920001349088000BF0EE02046621C94B2114AA1
:10193000115C114801F0DAF800BF40210E4801F0B7
:101940000DF80128F9D10A4801880088401E084A8C
:1019500010800029E8D109A001F066FA00200449AE
:101960000880002002490880022001F005F910BD1E
:101970001C0000202E030020004800400A00000048
:1019800000B5CBB0524A07CA48AB07C3504A0C3225
:1019900007CA45AB07C350224D49183131A8FEF79D
:1019A00036FE14224A4968312CA8FEF730FE202268
:1019B00048A124A8FEF72BFE142245497C311FA81C
:1019C000FEF725FE3C224249903110A8FEF71FFE8B
:1019D0003C223F49CC3101A8FEF719FE00204549C1
:1019E0000860002240F22551434800F0EEFF48A96C
:1019F000424800F089F8C82001F0BEF8FFF782FFE6
:101A000048A93F4800F080F845A93C4800F07CF820
:101A1000C82001F0B1F8FFF775FF45A9384800F07C
:101A200073F831A9354800F06FF84FF4967001F063
:101A3000A3F8FFF767FF31A9314800F065F82CA93A
:101A40002E4800F061F84FF4967001F095F8FFF71A
:101A500059FF2CA92A4800F057F824A9274800F07C
:101A600053F84FF4967001F087F8FFF74BFF24A965
:101A7000234800F049F81FA9204800F045F84FF42A
:101A8000967001F079F8FFF73DFF1FA91C4800F0A0
:101A90003BF810A9194800F037F84FF4967001F0A0
:101AA0006BF8FFF72FFF10A9154800F02DF8012063
:101AB0001449C1F8B40101210F4800F0F5FE0122DC
:101AC00040F225510C4800F080FF4BB000BD0000F3
:101AD000B836000841542B4D5154544F50454E3D9B
:101AE000312C312C302C302C302C22222C22220D67
:101AF0000A000000B40122420044004000380140C6
:101B0000004800400000224270B505460C460BE03C
:101B100000BF4021284600F021FF0028F9D021789D
:101B2000284600F0E3FF641C20780028F0D170BD47
:101B300070B505460C460BE000BF4021284600F07A
:101B40000DFF0028F9D02178284600F0CFFF641C53
:101B500020780028F0D170BD00BFFEE770472DE966
:101B6000F041024600250026002000230024002723
:101B700091F803C00CF00F0591F803C00CF0100CA5
:101B8000BCF1000F03D091F802C04CEA050591F8B2
:101B900000C0BCF1000F31D0146800202BE04FF0E2
:101BA000010C0CFA00F3B1F800C00CEA03069E42E7
:101BB00020D183004FF00F0C0CFA03F7BC4305FA59
:101BC00003FC4CEA040491F803C0BCF1280F06D1D1
:101BD0004FF0010C0CFA00FCC2F814C00AE091F8B6
:101BE00003C0BCF1480F05D14FF0010C0CFA00FC0A
:101BF000C2F810C0401C0828D1D31460B1F800C04E
:101C0000BCF1FF0F34DD546800202EE000F1080C19
:101C10004FF0010808FA0CF3B1F800C00CEA030613
:101C20009E4221D183004FF00F0C0CFA03F7BC4306
:101C300005FA03FC4CEA040491F803C0BCF1280F38
:101C400005D100F1080C08FA0CF8C2F8148091F8DC
:101C500003C0BCF1480F07D100F1080C4FF0010898
:101C600008FA0CF8C2F81080401C0828CED3546043
:101C7000BDE8F0810161704770B504460D46294604
:101C8000204600F07BF92946204600F0E7F8294677
:101C9000204600F017F92946204600F005FA2946AB
:101CA000204600F011FB70BD2DE9F047E0B0324A4C
:101CB00007CA5DAB07C33149D1F8490001F09EFB6B
:101CC00082462E49486C01F099FB8146002240F281
:101CD00025512B4800F079FEFFF714FE29495046A4
:101CE00001F0AAFA8246044601F018FA05460E46AB
:101CF0002449484601F0A0FA8146044601F00EFA54
:101D00005DAA8DE8630020A144A8FEF7E9FA1B480C
:101D100090F841000830182190FBF1F201FB120409
:101D2000164890F8431090F84200144A92F8402068
:101D3000CDE90124CDE90301104890F83F0000905F
:101D40000E48B0F83D3044AA13A12BA8FEF7C8FAFC
:101D50002BAA1AA105A8FEF7C3FA05A801F064F89A
:101D600005A92048FFF7E4FEC82000F005FFFFF7B3
:101D7000C9FD60B0BDE8F087AC36000890020020D5
:101D8000004400400050C34725732B252E35662B99
:101D9000252E35660000000025732B253034642D78
:101DA000253032642D2530326420253032643A25C6
:101DB0003032643A253032640000000041542B4D2B
:101DC0005154545055423D22746573745F6D717463
:101DD00074222C322C312C302C302C222573220DE5
:101DE0000A0000000038014000BFFEE708B50121ED
:101DF000102000F07BFB4FF40050ADF800001020E5
:101E00008DF8030003208DF8020069460448FFF7AF
:101E1000A6FE4FF400510248FFF72CFF08BD00005A
:101E20000010014000BFFEE70246134610E01078A4
:101E30002A2805D01078202802DB10787A2801DDC6
:101E4000FF20704710782C2801D1481EC1B2521CC7
:101E50000029ECD1D01AC0B2F3E70000F8B505466E
:101E60000F4616A13846FEF7A1FB0646062130466E
:101E7000FFF7DAFF0446FF2C05D03019694600F061
:101E80005AFA85F84E0007213046FFF7CDFF044689
:101E9000FF2C05D03019694600F04DFA85F84F0047
:101EA00009213046FFF7C0FF0446FF2C05D030194A
:101EB000694600F040FAC5F86300F8BD2447504772
:101EC000474100002DE9F8430546884629A14046D0
:101ED000FEF76CFB064602213046FFF7A5FF0446DD
:101EE000FF2C05D03019694600F025FA85F85C0012
:101EF000002713E0F81CC1B23046FFF795FF0446F7
:101F0000FF2C08D03019694600F015FAC1B205F16E
:101F10005000C15500E003E0781CC7B20C2FE9DB8C
:101F200000BF0F213046FFF77FFF0446FF2C05D08E
:101F30003019694600F0FFF9A5F85D001021304620
:101F4000FFF772FF0446FF2C05D03019694600F0F8
:101F5000F2F9A5F85F0011213046FFF765FF04464E
:101F6000FF2C05D03019694600F0E5F9A5F86100AD
:101F7000BDE8F88324475047534100002DE9FC5F3A
:101F800007468A464FF00008CDF804A044A1019806
:101F9000FEF70CFB0646F079303800F0FF0B03210A
:101FA0003046FFF741FF0546FF2D04D07019694602
:101FB00000F0C1F938704FF000096CE038A10198C9
:101FC000FEF7F4FA064600245CE0042000EB8400EF
:101FD000C1B23046FFF728FF0546FF2D09D0701922
:101FE000694600F0A8F9C1B208EB8802781C815458
:101FF00000E049E0052000EB8400C1B23046FFF765
:1020000013FF0546FF2D0AD07019694600F093F9B9
:10201000C1B208EB8802781C1044417000E033E044
:10202000062000EB8400C1B23046FFF7FDFE0546F6
:10203000FF2D0AD07019694600F07DF981B208EBD6
:102040008802781C1044418000E01DE0072000EB6E
:102050008400C1B23046FFF7E7FE0546FF2D0AD0E7
:102060007019694600F067F9C1B208EB8802781C64
:102070001044017100E007E008F1010000F0FF08E2
:10208000601CC4B2042CA0DB00BF701C019009F1DD
:10209000010000F0FF09D94590DBBDE8FC9F00007E
:1020A00024475047535600002DE9F04F85B00446B1
:1020B000884682A14046FEF779FA07460121384654
:1020C000FFF7B2FE0546FF2D23D0781904A900F0D2
:1020D00032F982469DF810100A2000F021F9BAFB6F
:1020E000F0F642F21070B6FBF0F0C1B2412001559B
:1020F0006420B6FBF0F06421B0FBF1F201FB1201A9
:10210000422001556420B6FBF0F100FB1161432031
:10211000015503213846FFF787FE0546FF2D43D0C2
:10212000781904A900F007F906469DF81000801CF4
:10213000C1B20A2000F0F4F8B6FBF0F060649DF83C
:102140001000801CC1B20A2000F0EAF8B6FBF0F1E2
:1021500000FB116A504601F051F981469DF81000CC
:10216000C0F10500C1B20A2000F0DAF8009001F0D9
:1021700045F98346494601F055F98246514901F037
:102180005BF8052102900A2000F0CAF8616C00FBA0
:1021900001FA504601F032F90190029900F0EAFF8D
:1021A000039001F00BF9606404213846FFF73CFE10
:1021B0000546FF2D02D0785D84F848000521384699
:1021C000FFF732FE0546FF2D45D0781904A900F02F
:1021D000B2F806469DF81000801CC1B20A2000F03B
:1021E0009FF8B6FBF0F044F8490F9DF81000801CF2
:1021F000C1B20A2000F094F8B6FBF0F100FB116ABE
:10220000504601F0FBF881469DF81000C0F1050032
:10221000C1B20A2000F084F8009001F0EFF8834684
:10222000494601F0FFF88246264901F005F80521EC
:1022300002900A2000F074F8216800FB01FA504671
:1022400001F0DCF80190029900F094FF039001F096
:10225000B5F844F8490906213846FFF7E5FD05467B
:10226000FF2D02D0785D84F84D0009213846FFF734
:10227000DBFD0546FF2D1ED0781904A900F05BF8A0
:10228000064642F21070B6FBF0F0C1B24020015594
:102290006420B6FBF0F06421B0FBF1F201FB120107
:1022A0003F2001556420B6FBF0F100FB116000F502
:1022B000FA60A4F83D0005B0BDE8F08F4750524DDC
:1022C0004300000000007042F8B504460D4612A11C
:1022D0002846FEF76BF9064607213046FFF7A4FDB6
:1022E0000746FF2F16D0F019694600F024F8A4F82D
:1022F00067009DF8000003280CDA9DF80000C0F18B
:102300000300C1B20A2000F00BF8B4F8671048438C
:10231000A4F86700F8BD0000244750565447000059
:1023200010B50246012000E050430B1EA1F101044C
:10233000E1B2F9D110BD2DE9F34F81B007463C461B
:1023400000200090834681460026804628E02078C1
:102350002D2802D148F00208641C20782C2802D0D5
:1023600020782A2800D11CE020782E2803D148F0BC
:102370000108641C09E02078392802DC2078302824
:1023800003DA4FF0000900260BE008F0010010B15D
:10239000701CC6B203E009F1010000F0FF09641CE3
:1023A000D5E700BF08F0020000B17F1C00250EE059
:1023B000A9F10100401BC1B20A20FFF7B1FF795D0E
:1023C0003039009A00FB01200090681CC5B24D45D1
:1023D000EEDB052E00DD05260298067000250EE0D6
:1023E000701E401BC1B20A20FFF79AFF09F10101DC
:1023F0002944795C303900FB01BB681CC5B2B54289
:10240000EEDB31460A20FFF78BFF009901FB00BA93
:1024100008F0020008B1CAF1000A5046BDE8FE8F7C
:102420007047000070B5002100230F22C47804B368
:10243000154C246804F4E064C4F5E064210AC1F199
:102440000403CA40447804FA03F184781440214319
:1024500009010E4C0678A155047804F01F050124EB
:10246000AC4005786D11AD0005F1E025C5F80041DF
:1024700009E0047804F01F050124AC40044D0678FF
:10248000761145F8264070BD0CED00E000E400E058
:1024900080E100E002490143024A116070470000F8
:1024A0000000FA050CED00E07047000029B1064A73
:1024B000D2690243044BDA6104E0034AD2698243E1
:1024C000014BDA61704700000010024029B1064A52
:1024D00012690243044B1A6104E0034A1269824301
:1024E000014B1A61704700000010024029B1064AF2
:1024F00092690243044B9A6104E0034A9269824361
:10250000014B9A61704700000010024029B1064A51
:10251000D2680243044BDA6004E0034AD268824383
:10252000014BDA60704700000010024030B5002116
:102530000022002400232D4D6D6805F00C0121B10F
:10254000042905D0082923D105E0294D056022E0A2
:10255000274D05601FE0254D6D6805F47012234D71
:102560006D6805F48034022505EB92421CB9214DBB
:10257000554305600BE01D4D6D6805F400351DB138
:102580001C4D5543056002E0194D5543056002E0BE
:10259000174D056000BF00BF144D6D6805F0F001D8
:1025A0000909154D6B5C0568DD4045600F4D6D6890
:1025B00005F4E061090A104D6B5C4568DD408560FB
:1025C0000A4D6D6805F46051C90A0B4D6B5C456896
:1025D000DD40C560054D6D6805F44041890B074D30
:1025E0006B5CC568B5FBF3F5056130BD00100240BA
:1025F00000127A0000093D00220000203200002075
:10260000704710B500F002F810BD00000CB50020B6
:10261000019000903348006840F4803031490860F0
:1026200000BF3048006800F4003000900198401C62
:102630000190009818B90198B0F5A06FF1D1294820
:10264000006800F4003010B10120009001E000208B
:1026500000900098012843D12348006840F0100002
:10266000214908600846006820F003000860084619
:10267000006840F0020008601A4840681949486044
:102680000846406848600846406840F480604860FA
:102690000846406820F47C1048600846406840F4D2
:1026A000E81048600846006840F08070086000BF8D
:1026B0000C48006800F000700028F9D00948406814
:1026C00020F00300074948600846406840F00200D7
:1026D000486000BF0348406800F00C000828F9D1AA
:1026E0000CBD00000010024000200240042808D168
:1026F0004FF0E021096941F004014FF0E02211613F
:1027000007E04FF0E021096921F004014FF0E022D9
:10271000116170477047000010B51348006840F021
:1027200001001149086008464068104908400E49F8
:102730004860084600680E4908400B490860084692
:10274000006820F4802008600846406820F4FE00FD
:1027500048604FF41F008860FFF753FF4FF00060A0
:102760000449086010BD0000001002400000FFF89E
:10277000FFFFF6FE08ED00E021B1028842F0010201
:10278000028004E002884FF6FE731A400280704710
:1027900010B500BF40F22551124800F0ECF860B1CE
:1027A0001048001D0088C1B20F4802880088401CF4
:1027B0000D4B18800D48815412E040F22441094825
:1027C00000F0D9F860B107480088C4B20548001D80
:1027D0000088C4B20448008840F4004002490880E0
:1027E00010BD0000003801401C0000202E03002016
:1027F00010B500BF40F22551114800F0BCF858B1A7
:102800000F49091D0988CAB20E490888411C0D4BA1
:1028100019800D490A5412E040F22441084800F0A2
:10282000AAF860B106480088C4B20548001D0088B7
:10283000C4B20448008840F400400249088010BD3A
:102840000044004020000020360A002010B500BFE0
:1028500040F22551114800F08EF858B10F49091D7A
:102860000988CAB20E490888411C0D4B19800D49D0
:102870000A5412E040F22441084800F07CF860B1AC
:1028800006480088C4B20548001D0088C4B2044848
:10289000008840F400400249088010BD0048004014
:1028A0001E0000208605002021B1828942F40052DA
:1028B000828104E082894DF6FF731A40828170475D
:1028C00010B504462048844209D101218803FFF74E
:1028D0001DFE00214FF48040FFF718FE32E01B4838
:1028E000844209D101214804FFF7F0FD00214FF493
:1028F0000030FFF7EBFD25E01548844209D10121A6
:102900008804FFF7E3FD00214FF48020FFF7DEFD90
:1029100018E01048844209D10121C804FFF7D6FD10
:1029200000214FF40020FFF7D1FD0BE00A4884425C
:1029300008D101210805FFF7C9FD00214FF48010DF
:10294000FFF7C4FD10BD0000003801400044004006
:1029500000480040004C004000500040024600206B
:10296000B1F5007F00D100BF13880B400BB10120EF
:1029700000E00020704770B50246002400230025C7
:10298000002040F66A16B14200D100BFC1F34215E3
:1029900001F01F03012606FA03F3012D02D19689E7
:1029A000334006E0022D02D1168A334001E0968AB8
:1029B00033400C12012606FA04F41688344013B191
:1029C0000CB1012000E0002070BDF0B503460024EA
:1029D00000260025002040F66A17B94200D100BF4A
:1029E0001846C1F3421401F01F06012707FA06F545
:1029F000012C01D10C3004E0022C01D1103000E098
:102A000014301AB107682F43076002E00768AF432C
:102A10000760F0BD2DE9F04786B005460E4600245C
:102A2000A24600BFA1460027B08900B100BF2F46D3
:102A30002C8A4CF6FF700440F08804432C82AC8949
:102A40004EF6F3100440B088318908437189084379
:102A50000443AC81AC8A4FF6FF400440B089044384
:102A6000AC8201A8FFF762FD1F48874202D1DDF862
:102A700010A001E0DDF80CA0A88900F4004040B1EE
:102A80000AEBCA0000EB0A1031684900B0FBF1F80C
:102A900007E00AEBCA0000EB0A1031688900B0FBBE
:102AA000F1F86420B8FBF0F004012009642101FB77
:102AB0001089A88900F4004040B1322000EBC90021
:102AC000B0FBF1F000F00700044308E0322000EB17
:102AD00009106421B0FBF1F000F00F0004432C81D9
:102AE00006B0BDE8F087000000380140C1F30802DD
:102AF0008280704700BFFEE7490050EAC12018BF3E
:102B000004204A0D18BF40F0010040F2FF72B2EB02
:102B1000515F08BF40F00200012808BF0520704740
:102B200030380A2801D20120704700207047014642
:102B300000BF704710B56FF00400FFF7D7FD0A48DB
:102B400000680A49B0FBF1F00949087008460078AE
:102B500000EB4001C1EBC0104FF6FF7101EAC0006D
:102B60000449088010BD00000000002000127A0017
:102B700014000020160000200146114A12884A4322
:102B80004FF0E0235A6100229A611A46126942F01E
:102B900001021A6100BF4FF0E022106900F001024B
:102BA0001AB100F48032002AF5D04FF0E022126909
:102BB00022F001024FF0E0231A6100229A6170476F
:102BC0001600002086B00024002500261422674944
:102BD00001A8FDF71CFD4FF4A060FFF75BFCFFF7B9
:102BE000A9FF4FF4165000F047F94FF4165000F0CB
:102BF000FBF94FF4165000F097F95DA000F014F9BE
:102C00005DA000F0E9F8FFF7F1F80120FFF7B4FF4D
:102C100001205B49086001A95A48FEF775FFFEF7DD
:102C200071FEFEF7ADFE58A15648FEF76DFF00207D
:102C30005949C1F8B40197E00A20FFF79DFF3220FF
:102C400095FBF0F100FB115038B94D48006808B908
:102C5000012000E000204A490860681C85B24F4806
:102C6000008800F4004060B3002240F225514C4837
:102C7000FFF7ABFE4BA14348FEF746FF701C86B240
:102C8000142096FBF0F100FB116048B947A13D48C4
:102C9000FEF73AFF47494848FEF7EEFFFFF704F812
:102CA00000203E49088045A13648FEF72DFF01214E
:102CB0003B48FFF7F9FD012240F225513848FFF764
:102CC00084FE4048008800F4004018B33D48008866
:102CD000C0F30E003B49088000240EE02046621C31
:102CE00094B2394A115C2748FFF700FF00BF40212A
:102CF0002448FFF733FE0128F9D132490888411EE4
:102D0000304A11800028E9D130A000F08DF8002071
:102D10002C4908802E48008800F4004020B32C483D
:102D20000088C0F30E002A49088000240EE02046E7
:102D3000621C94B2274A115C1248FFF7D7FE00BF0D
:102D400040211048FFF70AFE0128F9D120480188E8
:102D50000088401E1E4A10800029E8D105A000F01E
:102D600063F800201A49088066E70000C0370008B1
:102D7000312D75330A0000003132332D75320000D9
:102D8000B40122420048004041545F696E69745F9B
:102D9000656E640A0000000000002242200000204E
:102DA000004400404F70656E0A0000004669766579
:102DB0000A000000360A0020900200204E65787458
:102DC0000A0000001E00002086050020332A0A00A9
:102DD0001C0000202E0300200FB438B505A8009079
:102DE0000F48009A0499FDF769FA002000900C48FA
:102DF000FDF7EEFB85B200240DE000BF402109483D
:102E0000FFF7ACFD0028F9D00548015D0548FFF744
:102E10006DFE601C84B2AC42EFDB38BC5DF814FB85
:102E20008E0C0020004400400FB438B505A8009077
:102E30000F48009A0499FDF741FA002000900C48D1
:102E4000FDF7C6FB85B200240DE000BF4021094814
:102E5000FFF784FD0028F9D00548015D0548FFF71C
:102E600045FE601C84B2AC42EFDB38BC5DF814FB5D
:102E7000DE0700200048004010B586B0044601215E
:102E800044F20400FFF732FB4FF40070ADF8140079
:102E900003208DF8160018208DF8170005A920488A
:102EA000FEF75DFE4FF48060ADF8140004208DF84D
:102EB000170005A91A48FEF752FE25208DF80000DC
:102EC00002208DF8010003208DF8020001208DF80A
:102ED00003006846FFF7A6FA01940020ADF8080049
:102EE000ADF80A00ADF80C00ADF810000C20ADF8FC
:102EF0000E0001A90B48FFF78DFD012240F224418D
:102F00000848FFF762FD012240F225510548FFF70E
:102F10005CFD01210348FFF7C7FC06B010BD0000AF
:102F2000000801400038014010B586B00446012178
:102F30000420FFF7DBFA01214804FFF7B7FA27481E
:102F4000FFF7BEFC0420ADF8100003208DF812003E
:102F500018208DF8130004A92148FEF700FE082070
:102F6000ADF8100004208DF8130004A91C48FEF7EA
:102F7000F6FD00940020ADF80400ADF80600ADF8B1
:102F80000800ADF80C000C20ADF80A0069461348A3
:102F9000FFF740FD01211148FFF786FC012240F2B6
:102FA00025510E48FFF711FD012240F224410B4844
:102FB000FFF70BFD26208DF8140002208DF8150078
:102FC00003208DF8160001208DF8170005A8FFF7E3
:102FD00029FA00200349088006B010BD00440040D3
:102FE000000801402000002010B586B004460121F1
:102FF0000820FFF77BFA01218804FFF757FA2A48D7
:10300000FFF75EFC4FF48060ADF8100003208DF8F0
:10301000120018208DF8130004A92448FEF79FFD24
:103020004FF40060ADF8100004208DF8130004A9DF
:103030001E48FEF794FD00940020ADF80400ADF8A2
:103040000600ADF80800ADF80C000C20ADF80A0041
:1030500069461548FFF7DEFC01211348FFF724FC01
:10306000012240F225511048FFF7AFFC012240F247
:1030700024410D48FFF7A9FC27208DF814000220F9
:103080008DF8150003208DF8160001208DF817002B
:1030900005A8FFF7C7F90020054908800021054869
:1030A000FFF76AFB06B010BD00480040000C01406D
:1030B0001E0000200014004010B500290AD0087836
:1030C000002807D005487844FEF720F8002801D0F2
:1030D000002010BD0248784410BD00000608000022
:1030E000FE07000010B500290AD00878002807D094
:1030F00005487844FEF70AF8002801D0002010BDEA
:103100000248784410BD0000F6070000EE070000FA
:103110000808A0F500114FEA3101704743004FEA5B
:10312000D30C4FEA3C0C43401FBF40070CF16051E9
:1031300013F0FE4F70471CF0006F03D100200CF01D
:10314000004170470CF0004343EA507010B540EA6C
:10315000CC0000F0E8F900BF000000924FEA000147
:10316000FFF7D6BF4FF000414FF00000A1F500215E
:103170007047000090EA010F48BF81F0004100F164
:103180002482421A3CBF801A89184FEAD0524FF06D
:103190007F4C1CEA410FA2EBD15318BF9CEA026F8F
:1031A00000F03B804FF0004C4CEA00204CEA01213B
:1031B00021FA03FC10EB0C0C1ED202F1FF325FEA85
:1031C0001C2040EBC25038BF70471CF07F0F4FEA05
:1031D000400C18BFBCF17F4F38BF7047C3F12003CC
:1031E000994008BF20F00100BCF17F4F38BF704705
:1031F000A0F1C04000F0DDB94FEA3C00000A40EB0E
:10320000C25028BF1CF0FF0F4FEA400CE6D018BF99
:10321000BCF17F4F38BF7047EAE79CEA026F05D0E8
:1032200010EA5C0F08BF00F00040704710B500F0D6
:103230007AF900BF64FBBE3E4FF47F0C1CEAD0124B
:103240001EBF1CEAD11392EA0C0F93EA0C0F00F098
:10325000858090EA010F48BF42F4807240F4000C70
:1032600041F400002CF07F4120F07F4000B5814206
:10327000A2EB03020FF2081CACEB504EC0F10000B1
:103280009EF800E04FEA4E0E00FB0EFC38BF4900EE
:103290004FEA2C1C02F5FA020CFB0EF34FEACE1E8D
:1032A0004FEA112C4FEAC1210EEB635E42EB224242
:1032B0000EFB0CFC4FEA1C5300FB03114FEA112CD0
:1032C0004FEA01310EFB0CFC4FEADC4C00FB0C1109
:1032D000C14228BF09184CEB03335DF804EB10EB37
:1032E000410143EBC250B2F57C0F38BF704729D57E
:1032F00012F0F00F1CBF00F1C04000F0004070471A
:10330000008182838485868788898B8C8D8E8F91BE
:103310009293959697999A9C9D9FA0A2A3A5A7A8E2
:10332000AAACAEB0B2B3B5B7B9BCBEC0C2C5C7C90E
:10333000CCCED1D4D7D9DCDFE2E6E9ECF0F3F7FA72
:10334000FE0000004FEA400C0CF1807CBCF17E4F87
:1033500028BF7047B0F1C04000F02BB990EA010FD0
:103360000CEAD11348BF42F48072624538BF63450E
:1033700007D213F47F0F16D080EA010000F000405E
:10338000704710B500F0CFF8097EFC3E00F005B89C
:1033900080EA010000F00040704780EA010000F080
:1033A000004000F006B912F47F0F04BF02487047D6
:1033B00080EA010000F0FDB80000C07FC10DD1F12E
:1033C0009E0206DB4FEA002343F0004323FA02F09B
:1033D0007047004207D54FEA4001B1F1FE4F02D2DB
:1033E0004FF00000704710B500F09DF8499224801E
:1033F000002070476FEA200070470000B0FA80F3A9
:1034000010FA03F2C3F19D030AD0D90501EB122093
:10341000530638BF704700F1010008BF20F00100DB
:10342000704700004FF47F0C1CEAD0121EBF1CEA4C
:10343000D11392EA0C0F93EA0C0F00F0478090EA48
:10344000010F48BF42F480724FF0004C4CEA00205C
:103450004CEA012102EB0302A0FB0113A2F50002DA
:10346000002918BF43F001035B0028BF4FEA330374
:1034700042EB22425FEA132C4CEBC2502EBFBCEB56
:10348000436FB2F57C0F70474FEA036CBCF1004FFD
:1034900008BF20F00100B2F57C0F38BF70470BD594
:1034A00082F0FF0212F5803FC8BF704700F1C040B4
:1034B000D8BF00F00040704700F5000C5FEA4C0CEC
:1034C00048BF7047B0F1C04000F073B890EA010FF8
:1034D0000CEAD11348BF42F48072624538BF63459D
:1034E00004D280EA010000F00040704710B500F0FF
:1034F0001AF800BF8900013E00F007B800F009B8D3
:103500005FEA410C5FEA1C6C08D080EA010000F021
:1035100050B85FEA400C5FEA1C6CF6D14FF00040F7
:10352000A0F5800070470EF1020E2EF0030E5EF83B
:10353000044B244204D44FEA4102B2F17F4F11D828
:103540004FEA4003B3F17F4F0CD80ED14FEAD07C45
:10355000B2F17F4F0CEB4C0C0CF1020C08BF4CEBA2
:10356000D17C04E04FF0080C01E04FEAD17C0CEB79
:103570004C0324FA03F404F00704B4F1040C06D25B
:103580000EEB840CBDE810404CF0010C6047DFE806
:103590000CF0070802024FF00040A0F5800010BDBB
:1035A0000846420018BFD2F1807288BF00F0004088
:1035B00010BDFF2141EAD050C005704790EA010FCD
:1035C00048BF81F000413FF5DCAD421A04D882F0DB
:1035D0000042A0EB020011444FEAD0524FF07F4C62
:1035E0001CEA410FA2EBD15318BF9CEA026F4AD0EC
:1035F0004FF0004C4CEA00204CEA012121FA03FC78
:10360000B0EB0C0C0FD412F0FE0F36D05FEA4C007A
:103610001DD5001240EBC25038BF70471CF03F0F61
:1036200018BF70470BE0A2F101025FEA1C2040EBDB
:10363000C25038BF70471CF07F0F18BF7047C3F1EE
:103640002003994014BF401E20F0010070478008FD
:103650004FEA122308BF7047B0FA80FCA2EB0C02BD
:10366000CCF1280C60FA0CF093EA122F04BF00EBA7
:10367000C25070474FEAC3707047130A5FEADC100C
:1036800008BF7047F6E79CEA026F04D010EA5C0FAF
:1036900008BF0020704710B5FFF745FF40DFF63E3A
:1036A00081F000407047FDF73EB900006465763157
:1036B000000000000000000041540D0A000000005E
:1036C0000000000041542B4353510D0A000000003C
:1036D00041542B4D5154544346473D2233392E31EA
:1036E00030362E3136362E36222C313838332C22D5
:1036F0006D7174746A735F6964303037222C3630B0
:103700002C2261646D696E222C22313233343536BD
:10371000222C310D0A000000000000000000000013
:1037200041542B4D5154544346473F0D0A0000006D
:103730000000000041542B4D515454535441543F08
:103740000D0A00000000000041542B4D515454500C
:1037500055423D22746573745F6D717474222C320E
:103760002C312C302C302C22757064617465206DE6
:10377000657373616765220D0A0000000000000098
:103780000000000041542B4D5154545055423D22ED
:10379000746573745F6D717474222C322C312C300B
:1037A0002C302C22757064617465206D65737361B3
:1037B0006765323232220D0A00000000000000006E
:1037C0006E657741545F696E69745F656E640A0067
:1037D00000000000040000080000000000000002DB
:1037E00000010000100000000000000000000000C8
:1037F0003031323334353637383941424344454627
:103800004030580030313233343536373839616220
:10381000636465664030780002400000000000A04C
:103820000000000005400000000000C8000000008B
:103830000C4000000000409C000000001940000007
:103840000020BCBE0000000034400000BFC91B8E39
:1038500000000004B5400000504BCFD06607E2CF17
:10386000010000006C4100003E8251AADFEEA73447
:1038700001000000D9420000DCB5A0E23A301F97F9
:10388000FFFFFFFFB4450000FD25A0C8E9A3C14F1D
:10389000FFFFFFFFFF3F000000000080000000006E
:1038A000FF3F00000000008000000000F839000821
:1038B00000000020380000006C010008303A0008C9
:1038C0003800002010150000880100081C000000CE
:1038D00043000000F8FFFFFF0C0000000E00000096
:1038E0000F0000002E000000100100004300000047
:1038F000F8FFFFFF00404040404040404040414111
:1039000041414140404040404040404040404040B4
:10391000404040404005020202020202020202024E
:10392000020202020220202020202020202020024B
:1039300002020202020290909090909010101010DB
:103940001010101010101010101010101010101077
:10395000020202020202888888888888080808080B
:1039600008080808080808080808080808080808D7
:1039700002020202400000000000000000000000FF
:103980000000000000000000000000000000000037
:103990000000000000000000000000000000000027
:1039A0000000000000000000000000000000000017
:1039B0000000000000000000000000000000000007
:1039C00000000000000000000000000000000000F7
:1039D00000000000000000000000000000000000E7
:1039E00000000000000000000000000000000000D7
:1039F000000000000000000000A24A0400000000D7
:103A0000000000000102030406070809000000008E
:103A100000000000000000000000000000000102A3
:103A20000304010203040607080902040608000053
:040000050800027974
:00000001FF
